:10000000C2C0DCC0DBC0DAC0D9C0D8C0D7C0D6C03F
:1000100061C3D4C0D3C0D2C0D1C0D0C0CFC0CEC0C5
:10002000CDC0CCC0CBC00B0007000600070001000C
:100030000B000B000B0002000B000B000B0002007A
:100040000B000B000B0003000B0000000B000B006B
:100050000B0000000B0002000B000B000B00020065
:100060000B000B000B00030005000500050000005D
:100070000B0005000B000B000B000B000B000B002E
:100080000B000B000B000B000B000B000B000B0018
:100090000B000B000B0004000B000B000B00040016
:1000A0000B000B000B0003000B0005000B00000011
:1000B0000B0000000B000B000B000B000B000B00F3
:1000C0000B000B000B000B000B0000000B000000EE
:1000D0000B0000000B000B000B000B000B000100DD
:1000E0000B000B000B00080007000B0007000000CE
:1000F0000B0000000B000B000B000B000B000B00B3
:100100000B000B000B0008000B0000000B000A00A6
:100110000B000A000B000A000B000B000B000A008A
:100120000B000B000B000B0009000B0009000B007B
:100130000B000B000B000B000B000B000B000B0067
:100140000B000B000B0008000B0000000B000A0066
:100150000B0000000B000B000B000B000B000B0052
:100160000B000B000B000B000B0000000600000052
:100170000B0000000B000B000B000B000B000B0032
:100180000B000B000B0011241FBECFE5D4E0DEBF37
:10019000CDBF10E0A0E6B0E0ECEAF7E002C00590C9
:1001A0000D92A036B107D9F710E0A0E6B0E001C08B
:1001B0001D92AE37B107E1F703D1F6C221CF82EE2F
:1001C00094E090937B0080937A008CED95E090937F
:1001D0007D0080937C0081E090E011D281E090E08E
:1001E0003ED2089580ED97E090937B0080937A0053
:1001F00084EF91E090937D0080937C0081E090E01B
:10020000FED181E090E02BD208958CED95E09093A3
:100210007B0080937A0010927D0010927C0081E038
:1002200090E0EDD181E090E01AD2089584EC99E05D
:1002300090937B0080937A008AEF90E090937D000A
:1002400080937C0081E090E0DAD181E090E007D2F9
:10025000089580ED97E090937B0080937A008EEE76
:1002600092E090937D0080937C0081E090E0C7D184
:1002700081E090E0F4D108958CED95E090937B00BF
:1002800080937A0082EE94E090937D0080937C00CE
:1002900081E090E0B4D181E090E0E1D1089584EF75
:1002A00091E090937B0080937A0080ED97E09093AB
:1002B0007D0080937C0081E090E0A1D181E090E01E
:1002C000CED1089510927B0010927A008CED95E0CB
:1002D00090937D0080937C0081E090E090D181E05C
:1002E00090E0BDD108958AEF90E090937B008093D9
:1002F0007A0084EC99E090937D0080937C0081E00B
:1003000090E07DD181E090E0AAD108958EEE92E058
:1003100090937B0080937A0080ED97E090937D002E
:1003200080937C0081E090E06AD181E090E097D1F9
:1003300008958CED95E090937B0080937A009093E4
:100340007D0080937C0081E090E059D181E090E0D5
:1003500086D10895A7E3B0E08C9181608C93E1E3AE
:10036000F0E08081806180838081806880838C91CF
:1003700080618C93E4E3F0E08081877F80838081DB
:100380008B7F808380818D7F808380818E7F80833F
:1003900080818F7E808380818F7D80838C918F7E12
:1003A0008C93E8E3F0E0808180618083ADD187D1D8
:1003B000789481E090E023D181E090E050D10895DD
:1003C0002F923F924F925F926F927F928F929F9265
:1003D000AF92BF92CF92DF92EF92FF920F931F9353
:1003E000CF93DF93B7DFA2E6B0E0FD0189E991E0AA
:1003F0008193919386E891E09183808383E791E0F4
:1004000015969C938E93149782E691E017969C9391
:100410008E9316978FE491E019969C938E9318977C
:100420008CE391E01B969C938E931A9789E291E05E
:100430001D969C938E931C9786E191E01F969C934A
:100440008E931E9785E091E051969C938E935097E2
:1004500082EF90E053969C938E9352978FED90E0AD
:1004600055969C938E9354970F2EF6E3CF2EDD2452
:10047000F02D0F2EF4EF8F2EF1E09F2EF02D0F2E8A
:10048000F8ECEF2EFF24F02D0F2EF0E12F2EF7E2E7
:100490003F2EF02D0F2EF4EC4F2EF9E05F2EF02DB5
:1004A0003D0103E310E00F2EF6E2AF2EF0E0BF2E89
:1004B000F02D10927B0010927A0010927D00109225
:1004C0007C001092610010926000D6018C9184FD36
:1004D000FCCF9401C7010197F1F721503040D1F7CB
:1004E000E601888184FFFCCFC1010197F1F75092AA
:1004F0007B0040927A0050927D0040927C009401F3
:10050000C7010197F1F721503040D1F7D301ED91A8
:10051000FC91099580E090E04CC0E8012881888139
:100520004881688190E08470907030E0287030706D
:10053000822B932B50E042705070842B952B70E0EF
:1005400061707070FC01E62BF72BE801288188812F
:100550004881688190E08470907030E0287030703D
:10056000822B932B50E042705070842B952B70E0BF
:1005700061707070862B972B8E179F0711F0FC010E
:10058000E4CF8A0F9B1F880F991FF501E80FF91F11
:10059000E491CE2FD0E0CB30D10591F0CE01880F81
:1005A000991FF301E80FF91F0190F081E02D0995E3
:1005B000CE01DC01A295B295B07FBA27A07FBA2701
:1005C000F601808184FDA9CF10927B0010927A0001
:1005D00010927D0010927C009401C7010197F1F701
:1005E00021503040D1F7D6018C9184FFFCCF94018B
:1005F000C7010197F1F721503040D1F75ACF813030
:100600009105D9F08130910530F08230910561F08B
:10061000039721F51BC0E2E3F0E080818D7F8083AA
:1006200080818E7F80830895E2E3F0E080818260A4
:10063000808380818E7F80830895E2E3F0E0808173
:100640008D7F80838081816080830895E2E3F0E084
:100650008081826080838081816080830895813081
:100660009105D9F08130910530F08230910561F02B
:10067000039721F51BC0E5E3F0E080818F7E808346
:1006800080818F7D80830895E5E3F0E08081806143
:10069000808380818F7D80830895E5E3F0E0808111
:1006A0008F7E80838081806280830895E5E3F0E01F
:1006B0008081806180838081806280830895EEE400
:1006C000F0E08081816080830895EEE4F0E0808135
:1006D000808308951F920F920FB60F9211248F936B
:1006E0009F9380917A0090917B009BBD8ABD809101
:1006F0007C0090917D0099BD88BD9F918F910F9056
:100700000FBE0F901F901895E7E3F0E080818260A4
:100710008083808184608083E8E3F0E080818D7F46
:10072000808380818B7F808322E330E0F9018081A8
:100730008D7F808380818E7F8083A5E3B0E08C9164
:100740008F7E8C938C918F7D8C93E1E3F0E08081A0
:1007500082608083808181608083E4E3F0E0808137
:100760008061808380818062808380EA8FBD80E1A8
:100770008EBD88E893E197BD86BD1BBC1ABC19BC31
:1007800018BCE9E5F0E0808184608083F901808114
:100790008D7F808380818E7F80838C918F7E8C93F0
:0C07A0008C918F7D8C930895F894FFCF0E
:00000001FF
