:10000000C2C0D1C0D0C0CFC0CEC0CDC0CCC0CBC08C
:1000100076C3C9C0C8C0C7C0C6C0C5C0C4C0C3C0FD
:10002000C2C0C1C0C0C00B0007000600070001002D
:100030000B000B000B0002000B000B000B0002007A
:100040000B000B000B0003000B0000000B000B006B
:100050000B0000000B0002000B000B000B00020065
:100060000B000B000B00030005000500050000005D
:100070000B0005000B000B000B000B000B000B002E
:100080000B000B000B000B000B000B000B0004001F
:100090000B000B000B0004000B000B000B00040016
:1000A0000B000B000B0003000B0005000B00000011
:1000B0000B0000000B000B000B000B000B000B00F3
:1000C0000B000B000B000B000B0000000B000000EE
:1000D0000B0000000B000B000B000B000B000100DD
:1000E0000B000B000B00080007000B0007000000CE
:1000F0000B0000000B000B000B000B000B000B00B3
:100100000B000B000B0008000B0000000B000A00A6
:100110000B000A000B000A000B000B000B000A008A
:100120000B000B000B000B000900090009000B007D
:100130000B000B000B000B000B000B000B000B0067
:100140000B000B000B0008000B0000000B000A0066
:100150000B0000000B000B000B000B000B000B0052
:100160000B000B000B000B000B0000000600000052
:100170000B0000000B000B000B000B000B000B0032
:100180000B000B000B0011241FBECFE5D4E0DEBF37
:10019000CDBF10E0A0E6B0E001C01D92AA37B107C4
:1001A000E1F76FD1C6C22CCF8AEC98E0909377002C
:1001B00080937600909379008093780081E090E0BE
:1001C0006BD281E090E07ED28FE19EE40197F1F75F
:1001D00000C0000088E097E090937700809376005D
:1001E00081E090E059D208958AEC98E090937700EE
:1001F00080937600909379008093780081E090E07E
:100200004BD282E090E05ED28FE19EE40197F1F75D
:1002100000C0000084E893E0909379008093780018
:1002200081E090E04FD2089587E996E090937700BF
:1002300080937600909379008093780081E090E03D
:100240002BD282E090E03ED22FE788E391E021506C
:1002500080409040E1F700C0000088E494E0909373
:1002600079008093780082E090E02CD2089587E9AD
:1002700096E0909377008093760090937900809336
:10028000780081E090E008D282E090E01BD28FE11C
:100290009EE40197F1F700C0000081E591E09093A2
:1002A00079008093780081E090E00CD208958AEC88
:1002B00098E09093770080937600909379008093F4
:1002C000780082E090E0E8D181E090E0FBD18FE01F
:1002D00097E20197F1F700C0000087E296E0909363
:1002E00077008093760081E090E0D6D108958AEC83
:1002F00098E0909377008093760085E694E0909361
:1003000079008093780081E090E0C6D182E090E0AF
:10031000D9D18FE19EE40197F1F700C0000088E099
:1003200097E0909379008093780081E090E0CAD1C3
:1003300008958AEC98E090937700809376009093EC
:1003400079008093780081E090E0A6D181E090E090
:10035000B9D18FE19EE40197F1F700C0000084E875
:1003600093E0909377008093760081E090E094D1C1
:10037000089587E996E090937700809376009093B4
:1003800079008093780082E090E086D181E090E06F
:1003900099D12FE788E391E0215080409040E1F728
:1003A00000C0000088E494E090937700809376008A
:1003B00082E090E071D1089587E996E0909377000C
:1003C00080937600909379008093780082E090E0AB
:1003D00063D181E090E076D18FE19EE40197F1F75F
:1003E00000C0000081E591E0909377008093760053
:1003F00081E090E051D108958AEC98E090937700E5
:1004000080937600909379008093780081E090E06B
:1004100043D182E090E056D18FE097E20197F1F767
:1004200000C0000087E296E0909379008093780006
:1004300081E090E047D108958AEC98E090937700AE
:1004400080937600909379008093780081E090E02B
:1004500023D181E090E036D10895A39AA29AA19A7F
:10046000A09A8D988E988F988A98B898C09AF4D050
:100470003FD1789481E090E00FD181E090E022D1EB
:100480000895EBDF8CE192E090936100809360002F
:100490008CEF91E090936300809362008CED91E08B
:1004A000909365008093640089EB91E090936700DE
:1004B0008093660089E991E09093690080936800D9
:1004C00087E791E090936B0080936A0087E591E065
:1004D00090936D0080936C0087E391E090936F00A0
:1004E00080936E0084E191E090937100809370009E
:1004F00084EF90E0909373008093720084ED90E01D
:100500009093750080937400A12CB12C0F2EF4EC05
:100510008F2EF9E09F2EF02D0F2EF0E64F2EF0E0FB
:100520005F2EF02D6A2C7B2C6894CC24C1F8D12C42
:100530006894EE24E2F8F12C08E010E0B092770025
:10054000A0927600B0927900A0927800B099FECF88
:100550002FE788E391E0215080409040E1F700C010
:100560000000B09BFECFAFE0B7E21197F1F700C0FB
:1005700000009092770080927600909279008092AD
:100580007800BFE728E381E0B15020408040E1F7E8
:1005900000C00000D201ED91FC910995D5013DC04C
:1005A000829B02C0A80102C0462D572D859B02C028
:1005B000970102C0262D372D869B02C0C60102C0BE
:1005C000862D972D60B3FD01E295F295F07FFE2711
:1005D000E07FFE27772767FD70956627770F661FF8
:1005E0007727462B572B242B352B822B932B8E0FC3
:1005F0009F1FFC01EE0FFF1FEA5DFF4FC491D0E08B
:10060000CB30D10551F0FE01EE0FFF1FE05AFF4F36
:100610000190F081E02D0995DE01B099C1CFB09233
:100620007700A0927600B0927900A0927800BFE7A0
:1006300028E381E0B15020408040E1F700C0000095
:10064000B09BFECF9FE7A8E3B1E09150A040B0403F
:10065000E1F700C0000072CFB99ABA9AC198C29867
:1006600091989098AC98AD98899A889AA49AA59AEE
:1006700080EA8FBD80E18EBD88E893E197BD86BD9D
:100680001BBC1ABC19BC18BC89B7846089BF91987F
:100690009098AC98AD9808958130910569F030F04C
:1006A0008230910531F0039761F409C091989098D8
:1006B0000895919A909808959198909A0895919A92
:1006C000909A08958130910569F030F0823091055B
:1006D00031F0039761F409C0AC98AD980895AC9AD5
:1006E000AD980895AC98AD9A0895AC9AAD9A0895D6
:1006F0008EB581608EBD08958EB58EBD08951F9212
:100700000F920FB60F9211248F939F9380917600D2
:10071000909177009BBD8ABD80917800909179007F
:1007200099BD88BD9F918F910F900FBE0F901F9024
:060730001895F894FFCFBC
:00000001FF
