:100000006EC088C087C086C085C084C083C082C0DF
:1000100028C380C07FC07EC07DC07CC07BC07AC04A
:1000200079C078C077C0C3C1D3C1E5C1F7C108C2E8
:1000300018C228C23AC24CC25DC26DC2010008009B
:10004000030001000C000200010001000800010093
:100050000300070002000600010002000800030080
:1000600003000600060003000C0006000300000069
:10007000040004000800050005000600010005005A
:100080000C00060005000000040006000600010048
:100090000600080003000700060001000700010039
:1000A0000800080006000B00080003000B00080011
:1000B00000000900090001000A000A000600010012
:1000C0000A0003000B000A00000009000B000600F4
:1000D00001000B00010008000C0010000C001124AE
:1000E0001FBECFE5D4E0DEBFCDBF10E0A0E6B0E09C
:1000F000EAE3F7E002C005900D92A036B107D9F708
:1001000010E0A0E6B0E001C01D92A436B107E1F70F
:1001100032D011C375CFE4E3F0E080818860808342
:10012000808184608083808182608083808181601F
:100130008083E1E3F0E080818F7D808380818F7B0D
:10014000808380818F77808380818B7F8083E7E3CA
:10015000F0E080818E7F8083E8E3F0E08081816041
:10016000808399D273D2789481E090E00FD281E0BD
:1001700090E03CD208952F923F924F925F926F92FF
:100180007F928F929F92AF92BF92CF92DF92EF9227
:10019000FF920F931F93DF93CF930F92CDB7DEB7EC
:1001A000ECE3F0E0E491EC3019F4EE24FF2414C009
:1001B000EE24FF242CE330E00894E11CF11CC7017D
:1001C000880F991F8E0D9F1D880F991FF901E80F49
:1001D000F91FE491EC3081F79EDF0F2EF6E3AF2E8E
:1001E000BB24F02D0F2EF4EF2F2EF1E03F2EF02D3B
:1001F00000E310E088249924689481F86624772429
:10020000689462F844245524689443F8109261007D
:10021000109260001092630010926200D5018C91E0
:1002200080FDFCCF910188EC90E00197F1F721501F
:100230003040C9F781E090E0A9D181E090E0D6D1CB
:10024000F501808180FFFCCF80E197E20197F1F713
:100250003092610020926000309263002092620030
:1002600020E233E088EC90E00197F1F72150304034
:10027000C9F78CED95E090936100809360009093B6
:1002800063008093620020E233E088EC90E0019705
:10029000F1F721503040C9F7ACEABDE0B0936100FE
:1002A000A0936000B0936300A093620020E233E06B
:1002B00088EC90E00197F1F721503040C9F7E8E869
:1002C000F3E1F0936100E0936000F0936300E0934A
:1002D0006200A1E0B0E0CC24DD2437C1F8018081C8
:1002E00082FD02C0B60101C0B201F801808185FD26
:1002F00002C0A60101C0A301F801808186FD02C0F1
:10030000960101C09401F80180818823992787FD17
:1003100090958827990F881F9927862B972B842BD8
:10032000952BAC01422B532BE114F10409F40DC1C0
:100330009601C901880F991F820F931F880F991F7B
:10034000ECE3F0E0E80FF91FE4918E2F90E08A17BC
:100350009B0709F0F1C0C901880F991F820F931FF5
:100360000196880F991FECE3F0E0E80FF91FE49184
:100370008E2F90E08417950709F0DEC0C901880F21
:10038000991F820F931F880F991F0496ECE3F0E0EA
:10039000E80FF91F24912983822F90E0FC01319707
:1003A000EB30F10508F0CEC0ED5EFF4F099488E810
:1003B00093E1909361008093600090936300809339
:1003C000620081E090E0E2D081E090E00FD1BAC01D
:1003D000A6EABEE0B0936100A0936000E8E8F3E114
:1003E000F0936300E093620081E090E0CFD081E081
:1003F00090E0FCD0A7C08CED95E0909361008093D5
:100400006000A8E8B3E1B0936300A093620081E0CC
:1004100090E0BCD081E090E0E9D094C0E4E9F1E163
:10042000F0936100E093600088E893E190936300AB
:1004300080936200C401AAD081E090E0D7D082C04E
:10044000A0EABFE0B0936100A0936000B0936300A6
:10045000A093620081E090E099D081E090E0C6D066
:1004600071C0E4E9F1E1F0936100E0936000F09382
:100470006300E093620081E090E088D081E090E04A
:10048000B5D060C088E893E19093610080936000EC
:10049000A6EABEE0B0936300A093620081E090E022
:1004A00075D081E090E0A2D04DC0E8E8F3E1F09390
:1004B0006100E09360008CED95E090936300809381
:1004C000620081E090E062D081E090E08FD03AC09D
:1004D000A8E8B3E1B0936100A0936000E4E9F1E122
:1004E000F0936300E093620081E090E04FD0C4019C
:1004F0007DD028C088E893E19093610080936000EC
:10050000909363008093620081E090E03FD081E0AF
:1005100090E06CD017C0A8E8B3E1B0936100A0935D
:100520006000B0936300A093620081E090E02ED061
:1005300081E090E05BD006C02F5F3F4F2E153F0556
:1005400020F4F7CEE981AE2FB0E0F501808180FD87
:10055000C5CE10926100109260001092630010925C
:100560006200910188EC90E00197F1F72150304052
:10057000C9F7D5018C9180FFFCCF910188EC90E008
:100580000197F1F721503040C9F740CE81309105F5
:10059000D9F08130910530F08230910561F00397F8
:1005A00021F51BC0E2E3F0E080818D7F80838081B4
:1005B0008E7F80830895E2E3F0E080818260808313
:1005C00080818E7F80830895E2E3F0E080818D7FDB
:1005D00080838081816080830895E2E3F0E0808100
:1005E000826080838081816080830895813091055D
:1005F000D9F08130910530F08230910561F0039798
:1006000021F51BC0E5E3F0E080818F7E808380814F
:100610008F7D80830895E5E3F0E0808180618083B1
:1006200080818F7D80830895E5E3F0E080818F7E77
:1006300080838081806280830895E5E3F0E080819B
:10064000806180838081806280830895EEE4F0E0A1
:100650008081816080830895EEE4F0E08081808372
:1006600008951F920F920FB60F9211248F939F93AC
:1006700080916000909161009BBD8ABD8091620075
:100680009091630099BD88BD9F918F910F900FBE8F
:100690000F901F901895E7E3F0E0808182608083DF
:1006A000808184608083E8E3F0E080818D7F8083B7
:1006B00080818B7F808322E330E0F90180818D7F10
:1006C000808380818E7F8083A5E3B0E08C918F7ED4
:1006D0008C938C918F7D8C93E1E3F0E0808182603C
:1006E0008083808181608083E4E3F0E080818061A9
:1006F000808380818062808380EA8FBD80E18EBDAF
:1007000088E893E197BD86BD1BBC1ABC19BC18BC18
:10071000E9E5F0E0808184608083F90180818D7F4C
:10072000808380818E7F80838C918F7E8C938C914F
:0A0730008F7D8C930895F894FFCF9D
:00000001FF
