:10000000C2C0D1C0D0C0CFC0CEC0CDC091C2A1C2ED
:10001000CAC0C9C0C8C0C7C0C6C0C5C0C4C0C3C0AC
:10002000C2C0C1C0C0C00B0007000600070001002D
:100030000B000B000B0002000B000B000B0002007A
:100040000B000B000B0003000B0000000B000B006B
:100050000B0000000B0002000B000B000B00020065
:100060000B000B000B00030005000500050000005D
:100070000B0005000B000B000B000B000B000B002E
:100080000B000B000B000B000B000B000B0004001F
:100090000B000B000B0004000B000B000B00040016
:1000A0000B000B000B0003000B0005000B00000011
:1000B0000B0000000B000B000B000B000B000B00F3
:1000C0000B000B000B000B000B0000000B000000EE
:1000D0000B0000000B000B000B000B000B000100DD
:1000E0000B000B000B00080007000B0007000000CE
:1000F0000B0000000B000B000B000B000B000B00B3
:100100000B000B000B0008000B0000000B000A00A6
:100110000B000A000B000A000B000B000B000A008A
:100120000B000B000B000B000900090009000B007D
:100130000B000B000B000B000B000B000B000B0067
:100140000B000B000B0008000B0000000B000A0066
:100150000B0000000B000B000B000B000B000B0052
:100160000B000B000B000B000B0000000600000052
:100170000B0000000B000B000B000B000B000B0032
:100180000B000B000B0011241FBECFE5D4E0DEBF37
:10019000CDBF10E0A0E6B0E001C01D92AA37B107C4
:1001A000E1F7BDD0E7C12CCF8DE691E0B4D18DE66B
:1001B00091E0B4D108958DE691E0ADD18CE890E066
:1001C000ADD18FE19EE40197F1F700C000008EE20F
:1001D00091E0A1D108958DE691E09DD18CE890E069
:1001E0009DD18FE19EE40197F1F700C000008DE200
:1001F00091E094D108958DE691E08DD18CE890E066
:100200008DD12FE788E391E0215080409040E1F7C5
:1002100000C0000087ED90E081D1089580E491E076
:100220007AD18CE890E07AD18FE19EE40197F1F7E2
:1002300000C0000088E990E071D108958CE890E05A
:100240006AD18DE691E06AD18FE097E20197F1F7EC
:1002500000C0000080E591E05ED108958DE691E058
:100260005AD186EC90E05AD18FE19EE40197F1F7E4
:1002700000C000008BE591E051D108958DE691E03A
:100280004AD18DE691E04AD18FE19EE40197F1F7E2
:1002900000C000008DE291E03ED108958CE890E02E
:1002A0003AD18DE691E03AD12FE788E391E02150F1
:1002B00080409040E1F700C000008AE491E02BD13B
:1002C00008958CE890E027D18DE691E027D18FE169
:1002D0009EE40197F1F700C0000088E990E01BD18F
:1002E00008958DE691E017D18CE890E017D18FE06A
:1002F00097E20197F1F700C0000080E591E00ED190
:100300000895A39AA29AA19AA09A8D988E988F98F0
:100310008A98B898C09AE2D004D178940895F1DF11
:1003200084ED90E0909361008093600081E791E01C
:10033000909363008093620081E691E09093650062
:10034000809364008EE491E0909367008093660050
:100350008EE391E090936900809368008EE291E0D3
:1003600090936B0080936A008EE191E090936D0012
:1003700080936C008EE091E090936F0080936E000C
:100380008BEF90E090937100809370008BEE90E083
:1003900090937300809372008BED90E090937500C2
:1003A000809374000F2EF0E66F2EF0E07F2EF02D7C
:1003B000A12CB12C8A2C9B2C6894CC24C1F8D12C74
:1003C0006894EE24E2F8F12C08E010E080E091E07F
:1003D000A2D080E091E0A2D0B099FECF2FE788E3D1
:1003E00091E0215080409040E1F700C00000B09BB8
:1003F000FECFAFE0B7E21197F1F700C000008CE24A
:1004000091E089D08CE291E089D0BFE728E381E0D8
:10041000B15020408040E1F700C00000D301ED91D1
:10042000FC910995D5013DC0829B02C0A80102C084
:10043000482D592D859B02C0970102C0282D392DCA
:10044000869B02C0C60102C0882D992D60B3FD01B4
:10045000E295F295F07FFE27E07FFE27772767FD84
:1004600070956627770F661F7727462B572B242B0F
:10047000352B822B932B8E0F9F1FFC01EE0FFF1F3E
:10048000EA5DFF4FC491D0E0CB30D10551F0FE01C1
:10049000EE0FFF1FE05AFF4F0190F081E02D09950C
:1004A000DE01B099C1CF80E091E035D080E091E0ED
:1004B00035D0BFE728E381E0B15020408040E1F72C
:1004C00000C00000B09BFECF9FE7A8E3B1E09150D1
:1004D000A040B040E1F700C0000078CFB99ABA9AC6
:1004E000C198C29891989098AC98AD98899A889A3A
:1004F000A49AA59A82E08FBD1EBC88E893E197BDBF
:1005000086BD89B7886189BFC19AC29A9098AD9813
:10051000919AAC9A08959BBD8ABD089599BD88BDF6
:1005200008958EB581608EBD08958EB58EBD0895F7
:100530001F920F920FB60F921124919B03C09198B6
:10054000909A02C0919A90980F900FBE0F901F90B2
:1005500018951F920F920FB60F921124AC9B03C0F7
:10056000AC98AD9A02C0AC9AAD980F900FBE0F90A8
:080570001F901895F894FFCFCD
:00000001FF
