:100000001DC037C036C035C034C033C032C031C067
:1000100090C22FC02EC02DC02CC02BC02AC029C01A
:1000200028C027C026C034C044C056C068C078C0AD
:100030008AC09CC0AEC0C0C0D0C0E2C011241FBEE8
:10004000CFE5D4E0DEBFCDBF10E0A0E6B0E0EAE649
:10005000F5E002C005900D92A036B107D9F710E087
:10006000A0E6B0E001C01D92A436B107E1F717D1B8
:100070007AC2C6CFEF92FF92CF93DF93EC01FC01DF
:100080003197EB30F10508F0CDC0ED5EFF4F0994DC
:1000900088E893E1909361008093600090936300FF
:1000A0008093620081E090E00BD281E090E021D269
:1000B000B9C086EA9EE0909361008093600088E872
:1000C00093E1909363008093620082E090E0F8D126
:1000D00082E090E00ED2A6C086ED96E0909361009B
:1000E0008093600088E893E19093630080936200BE
:1000F00082E090E0E5D182E090E0FBD193C01092E5
:1001000061001092600088E893E19093630080930F
:10011000620082E090E0D4D182E090E0EAD182C037
:1001200088E893E190936100809360008AE990E110
:10013000909363008093620082E090E0C1D182E0FE
:1001400090E0D7D16FC088E893E1909361008093ED
:1001500060008EE892E1909363008093620082E0F9
:1001600090E0AED182E090E0C4D15CC088E893E139
:10017000909361008093600086EA9EE09093630014
:100180008093620082E090E09BD182E090E0B1D168
:1001900049C088E893E1909361008093600086ED08
:1001A00096E0909363008093620082E090E088D1B3
:1001B00082E090E09ED136C088E893E190936100A0
:1001C00080936000109263001092620082E090E0E1
:1001D00077D182E090E08DD125C08AE990E19093BB
:1001E00061008093600088E893E1909363008093BE
:1001F000620082E090E064D182E090E07AD112C0A7
:100200008EE892E1909361008093600088E893E12A
:10021000909363008093620082E090E051D182E08D
:1002200090E067D17E018C2F9F2DDF91CF91FF90C1
:10023000EF90089520B340B380B3221F2227221FDE
:1002400030E0220F331F220F331F4295469546950B
:10025000437050E041705070440F551F242B352BD4
:1002600082958695877090E081709070282B392B4D
:10027000822F932F0895A39AA29AA19AA09A8D985B
:100280008E988F988A98B898C09AFAD04BD1789463
:1002900081E090E015D181E090E02BD108950F939B
:1002A0001F93CF93DF93E7DF08E813E1109261001B
:1002B000109260001092630010926200B099FECF1D
:1002C0008FE798E3A1E081509040A040E1F700C0A3
:1002D0000000B09BFECFAFE0B7E21197F1F700C08E
:1002E000000010936100009360001093630000937E
:1002F00062008FEF9EE9A4E281509040A040E1F7B8
:1003000000C000009EC096DFEC010097E9F481E098
:1003100090E0D6D081E090E0ECD0109361000093A3
:100320006000109363000093620081E090E0C8D009
:1003300081E090E0DED010936100009360001093A4
:1003400063000093620024C08130910579F481E05C
:1003500090E0B6D081E090E0CCD0109361000093A3
:100360006000109263001092620024C082309105F8
:1003700079F481E090E0A4D081E090E0BAD01092CE
:10038000610010926000109363000093620024C02B
:10039000C330D10579F481E090E092D081E090E023
:1003A000A8D0109261001092600010926300109229
:1003B000620024C0C430D10579F481E090E080D09F
:1003C00082E090E096D0109361000093600010935B
:1003D00063000093620024C0C530D10579F481E048
:1003E00090E06ED082E090E084D0109361000093A2
:1003F0006000109263001092620023C0C630D105E5
:1004000079F481E090E05CD082E090E072D01092CC
:10041000610010926000109363000093620011C0AD
:10042000C730D10571F482E090E04AD082E090E0DC
:1004300060D01093610000936000109363000093FC
:100440006200B09960CF109261001092600010922B
:100450006300109262008FE798E3A1E08150904022
:10046000A040E1F700C00000B09BFECF8FE798E30B
:10047000A1E081509040A040E1F700C0000016CFFD
:10048000B99ABA9AC198C29891989098AC98AD9838
:10049000899A889AA49AA59A80EA8FBD80E18EBD38
:1004A00088E893E197BD86BD1BBC1ABC19BC18BC7B
:1004B00089B7846089BF91989098AC98AD98089559
:1004C0008130910581F08130910538F082309105BD
:1004D00039F08330910561F409C09198909808959E
:1004E000919A909808959198909A0895919A909AD7
:1004F00008958130910581F08130910538F0823086
:10050000910539F08330910561F409C0AC98AD983C
:100510000895AC9AAD980895AC98AD9A0895AC9AA8
:10052000AD9A08958EB581608EBD08958EB58EBD4D
:1005300008951F920F920FB60F9211248F939F93DD
:1005400080916000909161009BBD8ABD80916200A6
:100550009091630099BD88BD9F918F910F900FBEC0
:0A0560000F901F901895F894FFCF3C
:00000001FF
