:10000000C2C0DCC0DBC0DAC0D9C0D8C0D7C0D6C03F
:1000100036C4D4C0D3C0D2C0D1C0D0C0CFC0CEC0EF
:10002000CDC0CCC0CBC00B0007000600070001000C
:100030000B000B000B0002000B000B000B0002007A
:100040000B000B000B0003000B0000000B000B006B
:100050000B0000000B0002000B000B000B00020065
:100060000B000B000B00030005000500050000005D
:100070000B0005000B000B000B000B000B000B002E
:100080000B000B000B000B000B000B000B0004001F
:100090000B000B000B0004000B000B000B00040016
:1000A0000B000B000B0003000B0005000B00000011
:1000B0000B0000000B000B000B000B000B000B00F3
:1000C0000B000B000B000B000B0000000B000000EE
:1000D0000B0000000B000B000B000B000B000100DD
:1000E0000B000B000B00080007000B0007000000CE
:1000F0000B0000000B000B000B000B000B000B00B3
:100100000B000B000B0008000B0000000B000A00A6
:100110000B000A000B000A000B000B000B000A008A
:100120000B000B000B000B000900090009000B007D
:100130000B000B000B000B000B000B000B000B0067
:100140000B000B000B0008000B0000000B000A0066
:100150000B0000000B000B000B000B000B000B0052
:100160000B000B000B000B000B0000000600000052
:100170000B0000000B000B000B000B000B000B0032
:100180000B000B000B0011241FBECFE5D4E0DEBF37
:10019000CDBF10E0A0E6B0E0E6E5F9E002C00590D2
:1001A0000D92A036B107D9F710E0A0E6B0E001C08B
:1001B0001D92AA37B107E1F7E7D1CBC321CF0F9347
:1001C0001F930CE414E010937700009376001093D3
:1001D00079000093780081E090E0E6D281E090E041
:1001E00013D380E29EE40197F1F780E793E09093C8
:1001F000770080937600109379000093780081E077
:1002000090E0D2D281E090E0FFD21F910F9108954B
:100210000F931F930CE414E0109377000093760083
:10022000109379000093780081E090E0BDD282E0E5
:1002300090E0EAD280E29EE40197F1F71093770014
:100240000093760088EB91E090937900809378009A
:1002500081E090E0A9D281E090E0D6D21F910F9189
:1002600008950F931F930CE414E01093770000930C
:100270007600109379000093780081E090E094D2AA
:1002800082E090E0C1D280E69AEE0197F1F71093F8
:1002900077000093760081E891E090937900809355
:1002A000780081E090E080D282E090E0ADD21F91B2
:1002B0000F9108950F931F930CE414E010937700AF
:1002C0000093760086E292E0909379008093780024
:1002D00081E090E069D282E090E096D280E29EE4F4
:1002E0000197F1F710937700009376008CED90E082
:1002F000909379008093780081E090E055D281E07E
:1003000090E082D21F910F9108950F931F9386E280
:1003100092E090937700809376000CE414E01093C1
:1003200079000093780082E090E03ED281E090E096
:100330006BD280E197E20197F1F782E093E090932E
:10034000770080937600109379000093780081E025
:1003500090E02AD281E090E057D21F910F9108954A
:100360000F931F930CE414E0109377000093760032
:1003700086E292E0909379008093780081E090E0AB
:1003800013D282E090E040D280E29EE40197F1F740
:10039000109377000093760080E793E090937900C4
:1003A0008093780081E090E0FFD181E090E02CD252
:1003B0001F910F9108950F931F930CE414E0109375
:1003C000770000937600109379000093780081E025
:1003D00090E0EAD181E090E017D280E29EE40197BC
:1003E000F1F788EB91E0909377008093760010937B
:1003F00079000093780081E090E0D6D181E090E030
:1004000003D21F910F9108950F931F930CE414E0F2
:100410001093770000937600109379000093780092
:1004200082E090E0C1D181E090E0EED180E69AEEEA
:100430000197F1F78FEE91E090937700809376002B
:10044000109379000093780082E090E0ADD181E0D4
:1004500090E0DAD11F910F9108950F931F9386E2D8
:1004600092E090937700809376000CE414E0109370
:1004700079000093780082E090E096D181E090E0EE
:10048000C3D180E29EE40197F1F78CED90E0909368
:10049000770080937600109379000093780081E0D4
:1004A00090E082D181E090E0AFD11F910F9108954B
:1004B0000F931F930CE414E01093770000937600E1
:1004C00086E292E0909379008093780081E090E05A
:1004D0006BD182E090E098D180E197E20197F1F74B
:1004E000109377000093760082E093E09093790078
:1004F0008093780081E090E057D181E090E084D152
:100500001F910F9108958CE494E09093770080936D
:100510007600909379008093780081E090E044D158
:1005200081E090E071D10895E4E3F0E0808188609B
:1005300080838081846080838081826080838081E9
:1005400081608083E1E3F0E080818F7D8083808122
:100550008F7B808380818F77808380818B7F808376
:10056000E7E3F0E080818E7F8083E8E3F0E0808144
:10057000816080839ED178D1789481E090E014D11D
:1005800081E090E041D108952F923F924F925F9287
:100590006F927F928F929F92AF92BF92CF92DF9293
:1005A000EF92FF920F931F93CF93DF93BDDFA0E6EF
:1005B000B0E0FD0183E892E08193919388E592E0B9
:1005C000918380838DE292E015969C938E9314978D
:1005D00084E092E017969C938E9316978BED91E0B2
:1005E00019969C938E93189780EB91E01B969C93A1
:1005F0008E931A9785E891E01D969C938E931C9795
:100600008AE591E01F969C938E931E9781E391E07B
:1006100051969C938E93509788E091E053969C93CB
:100620008E9352978FED90E055969C938E935497AE
:100630000F2EF6E3CF2EDD24F02D08EC10E00F2E68
:10064000F0E3EF2EFF24F02D0F2EF6E28F2EF0E0D8
:100650009F2EF02DAA24BB2422243324689421F851
:1006600066247724689462F844245524689443F8F7
:100670001092770010927600109279001092780014
:10068000D6018C9180FDFCCF24EF31E0C8010197A9
:10069000F1F721503040D1F7F601808180FFFCCF87
:1006A00080E197E20197F1F784EC99E0909377006D
:1006B00080937600909379008093780024EF31E066
:1006C000C8010197F1F721503040D1F7A0E6B0E022
:1006D000ED91FC91099580E090E03EC0F7018081AA
:1006E00082FD02C0B50101C0B201F701808185FD24
:1006F00002C0A50101C0A301F701808186FD02C0EF
:10070000950101C09101F70180818823992787FD18
:1007100090958827990F881F9927862B972B842BD4
:10072000952B822B932B8A0F9B1F880F991FF40107
:10073000E80FF91FE491CE2FD0E0CB30D10599F02E
:10074000CE01880F991FE0E6F0E0E80FF91F019055
:10075000F081E02D0995CE01DC01A295B295B07F24
:10076000BA27A07FBA27F601808180FDB7CF10920B
:10077000770010927600109279001092780024EFA2
:1007800031E0C8010197F1F721503040D1F7D6018F
:100790008C9180FFFCCF24EF31E0C8010197F1F785
:1007A00021503040D1F764CF81309105D9F08130AC
:1007B000910530F08230910561F0039721F51BC05F
:1007C000E2E3F0E080818D7F808380818E7F808373
:1007D0000895E2E3F0E080818260808380818E7FF3
:1007E00080830895E2E3F0E080818D7F80838081C3
:1007F000816080830895E2E3F0E0808182608083FD
:10080000808181608083089581309105D9F08130A5
:10081000910530F08230910561F0039721F51BC0FE
:10082000E5E3F0E080818F7E808380818F7D80830F
:100830000895E5E3F0E080818061808380818F7D91
:1008400080830895E5E3F0E080818F7E808380815E
:10085000806280830895E5E3F0E080818061808399
:100860008081806280830895EEE4F0E08081816081
:1008700080830895EEE4F0E08081808308951F92E4
:100880000F920FB60F9211248F939F938091760051
:10089000909177009BBD8ABD8091780090917900FE
:1008A00099BD88BD9F918F910F900FBE0F901F90A3
:1008B0001895E7E3F0E08081826080838081846026
:1008C0008083E8E3F0E080818D7F808380818B7F6F
:1008D000808322E330E0F90180818D7F80838081F5
:1008E0008E7F8083A5E3B0E08C918F7E8C938C917A
:1008F0008F7D8C93E1E3F0E0808182608083808152
:1009000081608083E4E3F0E0808180618083808186
:100910008062808380EA8FBD80E18EBD88E893E1AC
:1009200097BD86BD1BBC1ABC19BC18BCE9E5F0E03C
:10093000808184608083F90180818D7F80838081C4
:100940008E7F80838C918F7E8C938C918F7D8C9306
:060950000895F894FFCFAA
:00000001FF
