:10000000C2C0DCC0DBC0DAC0D9C0D8C0D7C0D6C03F
:1000100050C3D4C0D3C0D2C0D1C0D0C0CFC0CEC0D6
:10002000CDC0CCC0CBC00B0007000600070001000C
:100030000B000B000B0002000B000B000B0002007A
:100040000B000B000B0003000B0000000B000B006B
:100050000B0000000B0002000B000B000B00020065
:100060000B000B000B00030005000500050000005D
:100070000B0005000B000B000B000B000B000B002E
:100080000B000B000B000B000B000B000B0004001F
:100090000B000B000B0004000B000B000B00040016
:1000A0000B000B000B0003000B0005000B00000011
:1000B0000B0000000B000B000B000B000B000B00F3
:1000C0000B000B000B000B000B0000000B000000EE
:1000D0000B0000000B000B000B000B000B000100DD
:1000E0000B000B000B00080007000B0007000000CE
:1000F0000B0000000B000B000B000B000B000B00B3
:100100000B000B000B0008000B0000000B000A00A6
:100110000B000A000B000A000B000B000B000A008A
:100120000B000B000B000B000900090009000B007D
:100130000B000B000B000B000B000B000B000B0067
:100140000B000B000B0008000B0000000B000A0066
:100150000B0000000B000B000B000B000B000B0052
:100160000B000B000B000B000B0000000600000052
:100170000B0000000B000B000B000B000B000B0032
:100180000B000B000B0011241FBECFE5D4E0DEBF37
:10019000CDBF10E0A0E6B0E0EAE8F7E002C00590CD
:1001A0000D92A036B107D9F710E0A0E6B0E001C08B
:1001B0001D92AA37B107E1F701D1E5C221CF80EB4B
:1001C00094E090937700809376008CED95E0909387
:1001D00079008093780081E090E000D281E090E0A7
:1001E0002DD208958CED95E0909377008093760062
:1001F00088E592E0909379008093780081E090E028
:10020000EDD181E090E01AD208958CED95E09093C5
:100210007700809376008DE092E090937900809350
:10022000780081E090E0DAD182E090E007D2089592
:100230008CED95E090937700809376008CE291E0CE
:10024000909379008093780081E090E0C7D181E0BD
:1002500090E0F4D108958AE194E090937700809340
:1002600076008CED95E0909379008093780081E0A2
:1002700090E0B4D181E090E0E1D108958CED95E07B
:10028000909377008093760080EB94E090937900D0
:100290008093780081E090E0A1D181E090E0CED120
:1002A000089588E592E090937700809376008CED36
:1002B00095E0909379008093780081E090E08ED172
:1002C00081E090E0BBD108958DE092E090937700BB
:1002D000809376008CED95E0909379008093780080
:1002E00082E090E07BD181E090E0A8D108958CE29B
:1002F00091E090937700809376008CED95E0909359
:1003000079008093780081E090E068D181E090E00E
:1003100095D108958CED95E09093770080937600C9
:100320008AE194E0909379008093780081E090E0F6
:1003300055D181E090E082D108958CED95E09093C5
:10034000770080937600909379008093780081E025
:1003500090E044D181E090E071D10895E4E3F0E0D1
:1003600080818860808380818460808380818260D6
:100370008083808181608083E1E3F0E080818F7DF4
:10038000808380818F7B808380818F778083808151
:100390008B7F8083E7E3F0E080818E7F8083E8E3DA
:1003A000F0E08081816080839ED178D1789481E073
:1003B00090E014D181E090E041D108952F923F92D6
:1003C0004F925F926F927F928F929F92AF92BF9265
:1003D000CF92DF92EF92FF920F931F93CF93DF9311
:1003E000BDDFA0E6B0E0FD018DE991E0819391933E
:1003F0008AE891E09183808387E791E015969C934A
:100400008E93149784E691E017969C938E9316979B
:1004100081E591E019969C938E9318978EE391E075
:100420001B969C938E931A978BE291E01D969C935A
:100430008E931C9788E191E01F969C938E931E9754
:1004400085E091E051969C938E93509782EF90E0D7
:1004500053969C938E9352978FED90E055969C9374
:100460008E9354970F2EF6E3CF2EDD24F02D08EC5B
:1004700010E00F2EF0E3EF2EFF24F02D0F2EF6E20A
:100480008F2EF0E09F2EF02DAA24BB2422243324AB
:10049000689421F866247724689462F844245524EB
:1004A000689443F8109277001092760010927900C9
:1004B00010927800D6018C9180FDFCCF24EF31E0C2
:1004C000C8010197F1F721503040D1F7F601808142
:1004D00080FFFCCF80E197E20197F1F784EC99E08F
:1004E00090937700809376009093790080937800C2
:1004F00024EF31E0C8010197F1F721503040D1F7E6
:10050000A0E6B0E0ED91FC91099580E090E03EC05E
:10051000F701808182FD02C0B50101C0B201F7017F
:10052000808185FD02C0A50101C0A301F701808182
:1005300086FD02C0950101C09101F70180818823E9
:10054000992787FD90958827990F881F9927862BD3
:10055000972B842B952B822B932B8A0F9B1F880F15
:10056000991FF401E80FF91FE491CE2FD0E0CB30B2
:10057000D10599F0CE01880F991FE0E6F0E0E80F71
:10058000F91F0190F081E02D0995CE01DC01A295C3
:10059000B295B07FBA27A07FBA27F601808180FD8F
:1005A000B7CF1092770010927600109279001092D7
:1005B000780024EF31E0C8010197F1F72150304075
:1005C000D1F7D6018C9180FFFCCF24EF31E0C80138
:1005D0000197F1F721503040D1F764CF8130910578
:1005E000D9F08130910530F08230910561F00397A8
:1005F00021F51BC0E2E3F0E080818D7F8083808164
:100600008E7F80830895E2E3F0E0808182608083C2
:1006100080818E7F80830895E2E3F0E080818D7F8A
:1006200080838081816080830895E2E3F0E08081AF
:10063000826080838081816080830895813091050C
:10064000D9F08130910530F08230910561F0039747
:1006500021F51BC0E5E3F0E080818F7E80838081FF
:100660008F7D80830895E5E3F0E080818061808361
:1006700080818F7D80830895E5E3F0E080818F7E27
:1006800080838081806280830895E5E3F0E080814B
:10069000806180838081806280830895EEE4F0E051
:1006A0008081816080830895EEE4F0E08081808322
:1006B00008951F920F920FB60F9211248F939F935C
:1006C00080917600909177009BBD8ABD80917800E3
:1006D0009091790099BD88BD9F918F910F900FBE29
:1006E0000F901F901895E7E3F0E08081826080838F
:1006F000808184608083E8E3F0E080818D7F808367
:1007000080818B7F808322E330E0F90180818D7FBF
:10071000808380818E7F8083A5E3B0E08C918F7E83
:100720008C938C918F7D8C93E1E3F0E080818260EB
:100730008083808181608083E4E3F0E08081806158
:10074000808380818062808380EA8FBD80E18EBD5E
:1007500088E893E197BD86BD1BBC1ABC19BC18BCC8
:10076000E9E5F0E0808184608083F90180818D7FFC
:10077000808380818E7F80838C918F7E8C938C91FF
:0A0780008F7D8C930895F894FFCF4D
:00000001FF
