:1000000012C021C020C01FC01EC01DC01CC01BC00C
:10001000B9C019C018C017C016C015C014C013C08D
:1000200012C011C010C011241FBECFE5D4E0DEBF46
:10003000CDBF10E0A0E6B0E001C01D92A436B1072C
:10004000E1F719D009C1DCCFE4E3F0E080818860FA
:1000500080838081846080838081826080838081CE
:1000600081608083E1E3F0E080818F7D8083808107
:100070008F7B80830895E8DFE5E3F0E06FEF7FEFAB
:1000800048EC50E08081886080839B01CA01019721
:10009000F1F721503040D1F78081877F80839B0129
:1000A000CA010197F1F721503040D1F7EBCF8130F1
:1000B0009105D9F08130910530F08230910561F0E1
:1000C000039721F51BC0E2E3F0E080818D7F808300
:1000D00080818E7F80830895E2E3F0E080818260FA
:1000E000808380818E7F80830895E2E3F0E08081C9
:1000F0008D7F80838081816080830895E2E3F0E0DA
:1001000080818260808380818160808308958130D6
:100110009105D9F08130910530F08230910561F080
:10012000039721F51BC0E5E3F0E080818F7E80839B
:1001300080818F7D80830895E5E3F0E08081806198
:10014000808380818F7D80830895E5E3F0E0808166
:100150008F7E80838081806280830895E5E3F0E074
:100160008081806180838081806280830895EEE455
:10017000F0E08081816080830895EEE4F0E080818A
:10018000808308951F920F920FB60F9211248F93C0
:100190009F9380916000909161009BBD8ABD80918A
:1001A00062009091630099BD88BD9F918F910F90DF
:1001B0000FBE0F901F901895E7E3F0E080818260FA
:1001C0008083808184608083E8E3F0E080818D7F9C
:1001D000808380818B7F808322E330E0F9018081FE
:1001E0008D7F808380818E7F8083A5E3B0E08C91BA
:1001F0008F7E8C938C918F7D8C93E1E3F0E08081F6
:1002000082608083808181608083E4E3F0E080818C
:100210008061808380818062808380EA8FBD80E1FD
:100220008EBD88E893E197BD86BD1BBC1ABC19BC86
:1002300018BCE9E5F0E0808184608083F901808169
:100240008D7F808380818E7F80838C918F7E8C9345
:0C0250008C918F7D8C930895F894FFCF63
:00000001FF
