:10000000C2C0D1C0D0C0CFC0CEC0CDC0CCC0CBC08C
:100010002DC4C9C0C8C0C7C0C6C0C5C0C4C0C3C045
:10002000C2C0C1C0C0C00B0007000600070001002D
:100030000B000B000B0002000B000B000B0002007A
:100040000B000B000B0003000B0000000B000B006B
:100050000B0000000B0002000B000B000B00020065
:100060000B000B000B00030005000500050000005D
:100070000B0005000B000B000B000B000B000B002E
:100080000B000B000B000B000B000B000B000B0018
:100090000B000B000B0004000B000B000B00040016
:1000A0000B000B000B0003000B0005000B00000011
:1000B0000B0000000B000B000B000B000B000B00F3
:1000C0000B000B000B000B000B0000000B000000EE
:1000D0000B0000000B000B000B000B000B000100DD
:1000E0000B000B000B00080007000B0007000000CE
:1000F0000B0000000B000B000B000B000B000B00B3
:100100000B000B000B0008000B0000000B000A00A6
:100110000B000A000B000A000B000B000B000A008A
:100120000B000B000B000B0009000B0009000B007B
:100130000B000B000B000B000B000B000B000B0067
:100140000B000B000B0008000B0000000B000A0066
:100150000B0000000B000B000B000B000B000B0052
:100160000B000B000B000B000B0000000600000052
:100170000B0000000B000B000B000B000B000B0032
:100180000B000B000B0011241FBECFE5D4E0DEBF37
:10019000CDBF10E0A0E6B0E001C01D92AE37B107C0
:1001A000E1F7AFD17DC32CCFCF93DF93CCE4D4E084
:1001B000D0937B00C0937A00D0937D00C0937C00E5
:1001C00081E090E01AD381E090E030D38FE19EE4AB
:1001D0000197F1F700C0000080E793E090937B0067
:1001E00080937A00D0937D00C0937C0081E090E002
:1001F00004D381E090E01AD3DF91CF9108958CE48D
:1002000094E090937B0080937A0088EB91E0909348
:100210007D0080937C0081E090E0EFD281E090E06F
:1002200005D30895CF93DF93CCE4D4E0D0937B0043
:10023000C0937A00D0937D00C0937C0081E090E071
:10024000DCD282E090E0F2D28FE59AEE0197F1F7EE
:1002500000C00000D0937B00C0937A0081E891E059
:1002600090937D0080937C0081E090E0C6D282E094
:1002700090E0DCD2DF91CF910895CF93DF93CCE46F
:10028000D4E0D0937B00C0937A0086E292E0909312
:100290007D0080937C0081E090E0AFD282E090E02E
:1002A000C5D28FE19EE40197F1F700C00000D09322
:1002B0007B00C0937A008CED90E090937D0080935A
:1002C0007C0081E090E099D281E090E0AFD2DF91B4
:1002D000CF910895CF93DF9386E292E090937B00D5
:1002E00080937A00CCE4D4E0D0937D00C0937C006E
:1002F00082E090E082D281E090E098D28FE097E2B5
:100300000197F1F700C0000082E093E090937B003A
:1003100080937A00D0937D00C0937C0081E090E0D0
:100320006CD281E090E082D2DF91CF910895CF939B
:10033000DF93CCE4D4E0D0937B00C0937A0086E2D4
:1003400092E090937D0080937C0081E090E055D214
:1003500082E090E06BD28FE19EE40197F1F700C05C
:100360000000D0937B00C0937A0080E793E09093E5
:100370007D0080937C0081E090E03FD281E090E0BE
:1003800055D2DF91CF91089588EB91E090937B0057
:1003900080937A008CE494E090937D0080937C00BD
:1003A00081E090E02AD281E090E040D20895CF939E
:1003B000DF93CCE4D4E0D0937B00C0937A00D09359
:1003C0007D00C0937C0082E090E017D281E090E055
:1003D0002DD28FE59AEE0197F1F700C000008FEE65
:1003E00091E090937B0080937A00D0937D00C0933E
:1003F0007C0082E090E001D281E090E017D2DF91B2
:10040000CF910895CF93DF9386E292E090937B00A3
:1004100080937A00CCE4D4E0D0937D00C0937C003C
:1004200082E090E0EAD181E090E000D28FE19EE4AA
:100430000197F1F700C000008CED90E090937B00F5
:1004400080937A00D0937D00C0937C0081E090E09F
:10045000D4D181E090E0EAD1DF91CF910895CF939C
:10046000DF93CCE4D4E0D0937B00C0937A0086E2A3
:1004700092E090937D0080937C0081E090E0BDD17C
:1004800082E090E0D3D18FE097E20197F1F700C0CE
:100490000000D0937B00C0937A0082E093E09093B9
:1004A0007D0080937C0081E090E0A7D181E090E026
:1004B000BDD1DF91CF91089582E093E090937B00CE
:1004C00080937A0090937D0080937C0081E090E09F
:1004D00094D181E090E0AAD10895A39AA29AA19A1A
:1004E000A09A8D988E988F988A98B898C09A65D15E
:1004F000B6D1789481E090E080D181E090E096D10F
:1005000008952F923F924F925F926F927F928F92B7
:100510009F92AF92BF92CF92DF92EF92FF920F9392
:100520001F93CF93DF93D9DF8CE592E09093630024
:10053000809362008FE292E0909365008093640064
:1005400082E092E0909367008093660087ED91E0EF
:10055000909369008093680084EC91E090936B0025
:1005600080936A0087E991E090936D0080936C001E
:100570008AE691E090936F0080936E008DE391E0A6
:10058000909371008093700082E191E090937300EA
:10059000809372008FEF90E09093750080937400C9
:1005A00084ED90E090937700809376000F2EF2E632
:1005B0002F2EF0E03F2EF02D88249924C401082D21
:1005C000192F82E090E0F82EE92E84E090E0D82EFA
:1005D000C92E88E090E0B82EA92E10927B001092D0
:1005E0007A0010927D0010927C00109261001092AF
:1005F0006000B099FECF8FE798E3A1E08150904072
:10060000A040E1F700C00000B09BFECFAFE0B7E232
:100610001197F1F700C00000E4ECF9E0F0937B00E3
:10062000E0937A00F0937D00E0937C008FE798E3FD
:10063000A1E081509040A040E1F700C00000D1014E
:10064000ED91FC910995662477248FC0829B03C0AD
:10065000C8E0D0E001C0E401859B03C024E030E0A5
:1006600001C09401869B03C082E090E001C0C401F8
:1006700040B3552747FD50954427550F441F552734
:10068000C42BD52BC22BD32BC82BD92B01C0E901EE
:10069000829B03C04B2D5A2D02C0402F512F859BAA
:1006A00003C02D2D3C2D02C0202F312F869B03C06F
:1006B0008F2D9E2D02C0802F912F60B3772767FD6D
:1006C00070956627770F661F7727462B572B242BAD
:1006D000352B282B392B2C173D07C9F661147104D3
:1006E00049F58091600090916100019690936100BE
:1006F0008093600080916000909161009295829556
:100700008F7089279F708927909379008093780054
:1007100080917800909179008333910534F0E2E381
:10072000F0E0F0937900E0937800D101ED91FC9135
:10073000099504C09092610080926000C40DD51D9F
:10074000CC0FDD1FCA5DDF4FFE018491C82FD0E0C2
:10075000CB30D10599F0FE01EE0FFF1FE20DF31D26
:100760000190F081E02D09953E012301440C551CB8
:10077000440C551C440C551C440C551CB09966CFB8
:1007800010927B0010927A0010927D0010927C00F3
:100790008FE798E3A1E081509040A040E1F700C0CE
:1007A0000000B09BFECF8FE798E3A1E0815090401E
:1007B000A040E1F700C0000010CFB99ABA9AC198E2
:1007C000C29891989098AC98AD98899A889AA49A72
:1007D000A59A80EA8FBD80E18EBD88E893E197BD40
:1007E00086BD1BBC1ABC19BC18BC89B7846089BF04
:1007F00091989098AC98AD9808958130910581F0CA
:100800008130910538F08230910539F083309105BF
:1008100061F409C0919890980895919A90980895DC
:100820009198909A0895919A909A0895813091059F
:1008300081F08130910538F08230910539F08330B4
:10084000910561F409C0AC98AD980895AC9AAD9843
:100850000895AC98AD9A0895AC9AAD9A08958EB566
:1008600081608EBD08958EB58EBD08951F920F9242
:100870000FB60F9211248F939F9380917A009091DD
:100880007B009BBD8ABD80917C0090917D0099BDCD
:1008900088BD9F918F910F900FBE0F901F9018955C
:0408A000F894FFCFFA
:00000001FF
