:10000000C2C0D1C0D0C0CFC0CEC0CDC0CCC0CBC08C
:1000100070C4C9C0C8C0C7C0C6C0C5C0C4C0C3C002
:10002000C2C0C1C0C0C00B0007000600070001002D
:100030000B000B000B0002000B000B000B0002007A
:100040000B000B000B0003000B0000000B000B006B
:100050000B0000000B0002000B000B000B00020065
:100060000B000B000B00030005000500050000005D
:100070000B0005000B000B000B000B000B000B002E
:100080000B000B000B000B000B000B000B000B0018
:100090000B000B000B0004000B000B000B00040016
:1000A0000B000B000B0003000B0005000B00000011
:1000B0000B0000000B000B000B000B000B000B00F3
:1000C0000B000B000B000B000B0000000B000000EE
:1000D0000B0000000B000B000B000B000B000100DD
:1000E0000B000B000B00080007000B0007000000CE
:1000F0000B0000000B000B000B000B000B000B00B3
:100100000B000B000B0008000B0000000B000A00A6
:100110000B000A000B000A000B000B000B000A008A
:100120000B000B000B000B0009000B0009000B007B
:100130000B000B000B000B000B000B000B000B0067
:100140000B000B000B0008000B0000000B000A0066
:100150000B0000000B000B000B000B000B000B0052
:100160000B000B000B000B000B0000000600000052
:100170000B0000000B000B000B000B000B000B0032
:100180000B000B000B0011241FBECFE5D4E0DEBF37
:10019000CDBF10E0A0E6B0E001C01D92AE37B107C0
:1001A000E1F7E9D101C42CCFCF93DF938BE693E045
:1001B00090937B0080937A00C6EDD6E0D0937D00CB
:1001C000C0937C0082E090E05BD381E090E071D34B
:1001D0008FE19EE40197F1F700C0000089EC94E004
:1001E00090937B0080937A00D0937D00C0937C0035
:1001F00081E090E045D381E090E05BD38FE097E22F
:100200000197F1F700C00000DF91CF91089586EDCE
:1002100096E090937B0080937A008DE092E090933B
:100220007D0080937C0081E090E02AD381E090E023
:1002300040D3089586ED96E090937B0080937A00FA
:1002400090937D0080937C0081E090E019D382E060
:1002500090E02FD38FE19EE40197F1F700C00000FA
:1002600088E795E090937B0080937A0083E193E0A8
:1002700090937D0080937C0081E090E001D382E048
:1002800090E017D30895CF93DF93C6EDD6E0D093D7
:100290007B00C0937A008BE693E090937D0080937F
:1002A0007C0081E090E0ECD282E090E002D38FE12C
:1002B0009EE40197F1F700C00000D0937B00C0934B
:1002C0007A008DE092E090937D0080937C0081E045
:1002D00090E0D6D281E090E0ECD2DF91CF9108950A
:1002E000CF93DF938BE693E090937B0080937A002B
:1002F000C6EDD6E0D0937D00C0937C0082E090E014
:10030000BFD281E090E0D5D28FE097E20197F1F77C
:1003100000C0000089EC94E090937B0080937A0009
:10032000D0937D00C0937C0081E090E0A9D281E071
:1003300090E0BFD2DF91CF910895CF93DF93C6EDC8
:10034000D6E0D0937B00C0937A008BE693E0909345
:100350007D0080937C0081E090E092D282E090E08A
:10036000A8D28FE19EE40197F1F700C00000D0937E
:100370007B00C0937A0089EC94E090937D00809399
:100380007C0081E090E07CD281E090E092D28FE02E
:1003900097E20197F1F700C00000DF91CF91089537
:1003A0008DE092E090937B0080937A0086ED96E05A
:1003B00090937D0080937C0081E090E061D281E0A9
:1003C00090E077D2089586ED96E090937B0080933D
:1003D0007A0090937D0080937C0082E090E050D280
:1003E00081E090E066D28FE19EE40197F1F700C0D2
:1003F000000083E193E090937B0080937A0088E78C
:1004000095E090937D0080937C0082E090E038D26C
:1004100081E090E04ED20895CF93DF938BE693E096
:1004200090937B0080937A00C6EDD6E0D0937D0058
:10043000C0937C0082E090E023D281E090E039D24A
:100440008FE19EE40197F1F700C000008DE092E09B
:1004500090937B0080937A00D0937D00C0937C00C2
:1004600081E090E00DD281E090E023D2DF91CF9146
:100470000895CF93DF93C6EDD6E0D0937B00C09371
:100480007A008BE693E090937D0080937C0081E07E
:1004900090E0F6D182E090E00CD28FE097E20197F5
:1004A000F1F700C00000D0937B00C0937A0089EC84
:1004B00094E090937D0080937C0081E090E0E0D117
:1004C00081E090E0F6D1DF91CF910895EF92FF9215
:1004D0000F931F936091780070917900882777FDC2
:1004E0008095982F20E032E14AE750E01CD20F2E91
:1004F000F0E0EF2EF1E7FF2EF2E00F2FF0E01F2FDC
:10050000F02DA80197012ED230937B0020937A0022
:100510006091780070917900882777FD8095982FF9
:1005200020E032E14AE750E0FED1A80197011AD25B
:1005300030937D0020937C0081E090E0A1D181E0A8
:1005400090E0B7D11F910F91FF90EF900895A39A7B
:10055000A29AA19AA09A8D988E988F988A98B89806
:10056000C09A6ED1BFD1789481E090E089D181E0CA
:1005700090E09FD108952F923F924F925F926F9299
:100580007F928F929F92AF92BF92CF92DF92EF9223
:10059000FF920F931F93CF93DF93D9DF86E692E00C
:1005A000909363008093620089E392E090936500EA
:1005B000809364008CE092E09093670080936600E3
:1005C00083EE91E0909369008093680080ED91E064
:1005D00090936B0080936A008DE991E090936D0099
:1005E00080936C0080E791E090936F0080936E00A1
:1005F00083E491E090937100809370008AE191E030
:10060000909373008093720087E091E0909375005F
:100610008093740084ED90E090937700809376004F
:100620000F2EF2E62F2EF0E03F2EF02D8824992495
:10063000C401082D192F82E090E0F82EE92E84E005
:1006400090E0D82EC92E88E090E0B82EA92E109206
:100650007B0010927A0010927D0010927C00109224
:10066000610010926000B099FECF8FE798E3A1E09F
:1006700081509040A040E1F700C00000B09BFECF49
:10068000AFE0B7E21197F1F700C00000E4ECF9E049
:10069000F0937B00E0937A00F0937D00E0937C0080
:1006A0008FE798E3A1E081509040A040E1F700C0BF
:1006B0000000D101ED91FC9109956624772498C042
:1006C000829B03C0C8E0D0E001C0E401859B03C069
:1006D00024E030E001C09401869B03C082E090E0FA
:1006E00001C0C40140B3552747FD50954427550F1D
:1006F000441F5527C42BD52BC22BD32BC82BD92B4A
:1007000001C0E901829B03C04B2D5A2D02C0402F2E
:10071000512F859B03C02D2D3C2D02C0202F312F42
:10072000869B03C08F2D9E2D02C0802F912F60B31A
:10073000772767FD70956627770F661F7727462B0B
:10074000572B242B352B282B392B2C173D07C9F67B
:100750006114710491F5809160009091610001969F
:10076000909361008093600080916000909161009F
:10077000929582958F7089279F7089279093790031
:100780008093780080917800909179008D30910568
:1007900034F0ECE0F0E0F0937900E09378008091A1
:1007A0007800909179000A96909379008093780070
:1007B000D101ED91FC91099504C090926100809265
:1007C0006000C40DD51DCC0FDD1FCA5DDF4FFE01DB
:1007D0008491C82FD0E0CB30D10599F0FE01EE0F07
:1007E000FF1FE20DF31D0190F081E02D09953E0100
:1007F0002301440C551C440C551C440C551C440C42
:10080000551CB0995DCF10927B0010927A00109227
:100810007D0010927C008FE798E3A1E0815090402A
:10082000A040E1F700C00000B09BFECF8FE798E347
:10083000A1E081509040A040E1F700C0000007CF48
:10084000B99ABA9AC198C29891989098AC98AD9874
:10085000899A889AA49AA59A80EA8FBD80E18EBD74
:1008600088E893E197BD86BD1BBC1ABC19BC18BCB7
:1008700089B7846089BF91989098AC98AD98089595
:100880008130910581F08130910538F082309105F9
:1008900039F08330910561F409C0919890980895DA
:1008A000919A909808959198909A0895919A909A13
:1008B00008958130910581F08130910538F08230C2
:1008C000910539F08330910561F409C0AC98AD9879
:1008D0000895AC9AAD980895AC98AD9A0895AC9AE5
:1008E000AD9A08958EB581608EBD08958EB58EBD8A
:1008F00008951F920F920FB60F9211248F939F931A
:1009000080917A0090917B009BBD8ABD80917C0094
:1009100090917D0099BD88BD9F918F910F900FBEE2
:100920000F901F901895629FD001739FF001829FD6
:10093000E00DF11D649FE00DF11D929FF00D839F6E
:10094000F00D749FF00D659FF00D9927729FB00D0B
:10095000E11DF91F639FB00DE11DF91FBD01CF011E
:1009600011240895A1E21A2EAA1BBB1BFD010DC084
:10097000AA1FBB1FEE1FFF1FA217B307E407F5074F
:1009800020F0A21BB30BE40BF50B661F771F881F2B
:10099000991F1A9469F760957095809590959B01C1
:0C09A000AC01BD01CF010895F894FFCF19
:00000001FF
