:10000000C2C0D1C0D0C0CFC0CEC0CDC0CCC0CBC08C
:1000100070C3C9C0C8C0C7C0C6C0C5C0C4C0C3C003
:10002000C2C0C1C0C0C00B0007000600070001002D
:100030000B000B000B0002000B000B000B0002007A
:100040000B000B000B0003000B0000000B000B006B
:100050000B0000000B0002000B000B000B00020065
:100060000B000B000B00030005000500050000005D
:100070000B0005000B000B000B000B000B000B002E
:100080000B000B000B000B000B000B000B0004001F
:100090000B000B000B0004000B000B000B00040016
:1000A0000B000B000B0003000B0005000B00000011
:1000B0000B0000000B000B000B000B000B000B00F3
:1000C0000B000B000B000B000B0000000B000000EE
:1000D0000B0000000B000B000B000B000B000100DD
:1000E0000B000B000B00080007000B0007000000CE
:1000F0000B0000000B000B000B000B000B000B00B3
:100100000B000B000B0008000B0000000B000A00A6
:100110000B000A000B000A000B000B000B000A008A
:100120000B000B000B000B000900090009000B007D
:100130000B000B000B000B000B000B000B000B0067
:100140000B000B000B0008000B0000000B000A0066
:100150000B0000000B000B000B000B000B000B0052
:100160000B000B000B000B000B0000000600000052
:100170000B0000000B000B000B000B000B000B0032
:100180000B000B000B0011241FBECFE5D4E0DEBF37
:10019000CDBF10E0A0E6B0E001C01D92AA37B107C4
:1001A000E1F769D1C0C22CCF86ED96E0909377003D
:1001B00080937600909379008093780081E090E0BE
:1001C00065D281E090E078D28FE19EE40197F1F76B
:1001D00000C0000088E795E0909377008093760058
:1001E00081E090E053D2089586ED96E090937700F9
:1001F00080937600909379008093780081E090E07E
:1002000045D282E090E058D28FE19EE40197F1F769
:1002100000C000008CEB92E090937900809378000E
:1002200081E090E049D2089586ED96E090937700C2
:1002300080937600909379008093780081E090E03D
:1002400025D282E090E038D28FE59AEE0197F1F75F
:1002500000C0000084E692E09093790080937800DB
:1002600082E090E029D2089586ED96E090937700A1
:1002700080937600909379008093780081E090E0FD
:1002800005D282E090E018D28FE19EE40197F1F769
:1002900000C000008EE591E0909379008093780093
:1002A00081E090E009D2089586ED96E09093770082
:1002B00080937600909379008093780082E090E0BC
:1002C000E5D181E090E0F8D18FE19EE40197F1F76C
:1002D00000C0000089EC94E0909377008093760052
:1002E00081E090E0D3D1089586ED96E09093770079
:1002F000809376008BE693E090937900809378006A
:1003000081E090E0C3D182E090E0D6D18FE19EE41D
:100310000197F1F700C0000088E795E0909379001D
:100320008093780081E090E0C7D1089586ED96E053
:100330009093770080937600909379008093780073
:1003400081E090E0A3D181E090E0B6D18FE19EE41E
:100350000197F1F700C000008CEB92E090937700DA
:100360008093760081E090E091D1089586ED96E04B
:100370009093770080937600909379008093780033
:1003800082E090E083D181E090E096D18FE59AEE13
:100390000197F1F700C0000083E193E090937700AC
:1003A0008093760082E090E071D1089586ED96E02A
:1003B00090937700809376009093790080937800F3
:1003C00082E090E063D181E090E076D18FE19EE41D
:1003D0000197F1F700C000008EE591E0909377005F
:1003E0008093760081E090E051D1089586ED96E00B
:1003F00090937700809376009093790080937800B3
:1004000081E090E043D182E090E056D18FE19EE41C
:100410000197F1F700C0000089EC94E09093790017
:100420008093780081E090E047D1089586ED96E0D2
:100430009093770080937600909379008093780072
:1004400081E090E023D181E090E036D10895A39A35
:10045000A29AA19AA09A8D988E988F988A98B89807
:10046000C09AF4D03FD1789481E090E00FD181E040
:1004700090E022D10895EBDF86E192E09093610055
:100480008093600086EF91E0909363008093620018
:1004900086ED91E0909365008093640086EB91E097
:1004A000909367008093660086E991E090936900DD
:1004B0008093680084E791E090936B0080936A00DA
:1004C00084E591E090936D0080936C0084E391E06B
:1004D00090936F0080936E0084E191E0909371009F
:1004E0008093700084EF90E090937300809372008B
:1004F00084ED90E09093750080937400A12CB12C52
:100500000F2EF4EC8F2EF9E09F2EF02D0F2EF0E63B
:100510004F2EF0E05F2EF02D6A2C7B2C6894CC24BB
:10052000C1F8D12C6894EE24E2F8F12C08E010E038
:10053000B0927700A0927600B0927900A0927800F5
:10054000B099FECF2FE788E391E0215080409040A2
:10055000E1F700C00000B09BFECFAFE0B7E211971B
:10056000F1F700C0000090927700809276009092A0
:10057000790080927800BFE728E381E0B150204005
:100580008040E1F700C00000D201ED91FC91099597
:10059000D5013DC0829B02C0A80102C0462D572D47
:1005A000859B02C0970102C0262D372D869B02C075
:1005B000C60102C0862D972D60B3FD01E295F2952C
:1005C000F07FFE27E07FFE27772767FD709566277F
:1005D000770F661F7727462B572B242B352B822B23
:1005E000932B8E0F9F1FFC01EE0FFF1FEA5DFF4F45
:1005F000C491D0E0CB30D10551F0FE01EE0FFF1FCA
:10060000E05AFF4F0190F081E02D0995DE01B0998D
:10061000C1CFB0927700A0927600B0927900A092FC
:100620007800BFE728E381E0B15020408040E1F747
:1006300000C00000B09BFECF9FE7A8E3B1E091505F
:10064000A040B040E1F700C0000072CFB99ABA9A5A
:10065000C198C29891989098AC98AD98899A889AC8
:10066000A49AA59A80EA8FBD80E18EBD88E893E1C7
:1006700097BD86BD1BBC1ABC19BC18BC89B7846069
:1006800089BF91989098AC98AD9808958130910564
:1006900069F030F08230910531F0039761F409C0C0
:1006A000919890980895919A909808959198909A19
:1006B0000895919A909A08958130910569F030F0EB
:1006C0008230910531F0039761F409C0AC98AD9880
:1006D0000895AC9AAD980895AC98AD9A0895AC9AE7
:1006E000AD9A08958EB581608EBD08958EB58EBD8C
:1006F00008951F920F920FB60F9211248F939F931C
:1007000080917600909177009BBD8ABD80917800A2
:100710009091790099BD88BD9F918F910F900FBEE8
:0A0720000F901F901895F894FFCF7A
:00000001FF
