:10000000C2C0D1C0D0C0CFC0CEC0CDC0CCC0CBC08C
:1000100027C4C9C0C8C0C7C0C6C0C5C0C4C0C3C04B
:10002000C2C0C1C0C0C00B0007000600070001002D
:100030000B000B000B0002000B000B000B0002007A
:100040000B000B000B0003000B0000000B000B006B
:100050000B0000000B0002000B000B000B00020065
:100060000B000B000B00030005000500050000005D
:100070000B0005000B000B000B000B000B000B002E
:100080000B000B000B000B000B000B000B000B0018
:100090000B000B000B0004000B000B000B00040016
:1000A0000B000B000B0003000B0005000B00000011
:1000B0000B0000000B000B000B000B000B000B00F3
:1000C0000B000B000B000B000B0000000B000000EE
:1000D0000B0000000B000B000B000B000B000100DD
:1000E0000B000B000B00080007000B0007000000CE
:1000F0000B0000000B000B000B000B000B000B00B3
:100100000B000B000B0008000B0000000B000A00A6
:100110000B000A000B000A000B000B000B000A008A
:100120000B000B000B000B0009000B0009000B007B
:100130000B000B000B000B000B000B000B000B0067
:100140000B000B000B0008000B0000000B000A0066
:100150000B0000000B000B000B000B000B000B0052
:100160000B000B000B000B000B0000000600000052
:100170000B0000000B000B000B000B000B000B0032
:100180000B000B000B0011241FBECFE5D4E0DEBF37
:10019000CDBF10E0A0E6B0E001C01D92AE37B107C0
:1001A000E1F7A9D177C32CCFCF93DF93C4E3D8E095
:1001B000D0937B00C0937A00D0937D00C0937C00E5
:1001C00082E090E014D381E090E02AD38FE295E7BB
:1001D0000197F1F700C0000080E996E090937B0062
:1001E00080937A00D0937D00C0937C0081E090E002
:1001F000FED281E090E014D3DF91CF91089584E3A3
:1002000098E090937B0080937A008AE194E0909349
:100210007D0080937C0081E090E0E9D281E090E075
:10022000FFD20895CF93DF93C4E3D8E0D0937B004F
:10023000C0937A00D0937D00C0937C0081E090E071
:10024000D6D282E090E0ECD28FE19EE40197F1F704
:1002500000C00000D0937B00C0937A0081EB93E054
:1002600090937D0080937C0081E090E0C0D282E09A
:1002700090E0D6D2DF91CF910895CF93DF93C4E37E
:10028000D8E0D0937B00C0937A008EEB95E09093FA
:100290007D0080937C0081E090E0A9D282E090E034
:1002A000BFD28FE295E70197F1F700C00000D0932D
:1002B0007B00C0937A0082ED90E090937D00809364
:1002C0007C0081E090E093D281E090E0A9D2DF91C0
:1002D000CF9108958EEB95E090937B0080937A0008
:1002E0008CE79BE090937D0080937C0082E090E01F
:1002F0007ED281E090E094D28FE99FE00197F1F700
:1003000000C0000089EF96E090937B0080937A0014
:1003100084E398E090937D0080937C0081E090E0FE
:1003200066D281E090E07CD20895CF93DF93C4E35E
:10033000D8E0D0937B00C0937A00D0937D00C09327
:100340007C0081E090E053D282E090E069D28FE2BD
:1003500095E70197F1F700C00000D0937B00C093B0
:100360007A0089EF96E090937D0080937C0081E095
:1003700090E03DD281E090E053D2DF91CF9108959B
:100380008AE194E090937B0080937A0084E398E084
:1003900090937D0080937C0081E090E028D281E002
:1003A00090E03ED20895CF93DF93C4E3D8E0D0939A
:1003B0007B00C0937A00D0937D00C0937C0082E0E4
:1003C00090E015D281E090E02BD28FE19EE401977E
:1003D000F1F700C000008FED92E090937B008093D6
:1003E0007A00D0937D00C0937C0082E090E0FFD142
:1003F00081E090E015D2DF91CF910895CF93DF9304
:100400008EEB95E090937B0080937A00C4E3D8E074
:10041000D0937D00C0937C0082E090E0E8D181E041
:1004200090E0FED18FE295E70197F1F700C0000060
:1004300082ED90E090937B0080937A00D0937D00D2
:10044000C0937C0081E090E0D2D181E090E0E8D1DF
:10045000DF91CF9108958CE79BE090937B00809390
:100460007A008EEB95E090937D0080937C0081E094
:1004700090E0BDD182E090E0D3D18FE99FE0019779
:10048000F1F700C0000084E398E090937B00809334
:100490007A0089EF96E090937D0080937C0081E064
:1004A00090E0A5D181E090E0BBD108958AE194E08D
:1004B00090937B0080937A0090937D0080937C00E2
:1004C00081E090E094D181E090E0AAD10895A39AD0
:1004D000A29AA19AA09A8D988E988F988A98B89887
:1004E000C09A65D1B6D1789481E090E080D181E066
:1004F00090E096D108952F923F924F925F926F9223
:100500007F928F929F92AF92BF92CF92DF92EF92A3
:10051000FF920F931F93CF93DF93D9DF86E592E08D
:1005200090936300809362008BE292E09093650069
:10053000809364008EEF91E0909367008093660053
:1005400083ED91E0909369008093680080EC91E0E6
:1005500090936B0080936A0085E991E090936D0021
:1005600080936C008AE691E090936F0080936E0018
:100570008DE391E0909371008093700082E191E0AF
:1005800090937300809372008FEF90E090937500CA
:100590008093740084ED90E09093770080937600D0
:1005A0000F2EF2E62F2EF0E03F2EF02D8824992416
:1005B000C401082D192F82E090E0F82EE92E84E086
:1005C00090E0D82EC92E88E090E0B82EA92E109287
:1005D0007B0010927A0010927D0010927C001092A5
:1005E000610010926000B099FECF8FE798E3A1E020
:1005F00081509040A040E1F700C00000B09BFECFCA
:10060000AFE0B7E21197F1F700C00000E4ECF9E0C9
:10061000F0937B00E0937A00F0937D00E0937C0000
:100620008FE798E3A1E081509040A040E1F700C03F
:100630000000D101ED91FC910995662477248FC0CB
:10064000829B03C0C8E0D0E001C0E401859B03C0E9
:1006500024E030E001C09401869B03C082E090E07A
:1006600001C0C40140B3552747FD50954427550F9D
:10067000441F5527C42BD52BC22BD32BC82BD92BCA
:1006800001C0E901829B03C04B2D5A2D02C0402FAF
:10069000512F859B03C02D2D3C2D02C0202F312FC3
:1006A000869B03C08F2D9E2D02C0802F912F60B39B
:1006B000772767FD70956627770F661F7727462B8C
:1006C000572B242B352B282B392B2C173D07C9F6FC
:1006D0006114710449F58091600090916100019668
:1006E0009093610080936000809160009091610020
:1006F000929582958F7089279F70892790937900B2
:1007000080937800809178009091790083339105EF
:1007100034F0E2E3F0E0F0937900E0937800D10167
:10072000ED91FC91099504C0909261008092600067
:10073000C40DD51DCC0FDD1FCA5DDF4FFE018491B6
:10074000C82FD0E0CB30D10599F0FE01EE0FFF1F8E
:10075000E20DF31D0190F081E02D09953E0123018A
:10076000440C551C440C551C440C551C440C551C85
:10077000B09966CF10927B0010927A0010927D00A3
:1007800010927C008FE798E3A1E081509040A04058
:10079000E1F700C00000B09BFECF8FE798E3A1E037
:1007A00081509040A040E1F700C0000010CFB99AFE
:1007B000BA9AC198C29891989098AC98AD98899A35
:1007C000889AA49AA59A80EA8FBD80E18EBD88E8B8
:1007D00093E197BD86BD1BBC1ABC19BC18BC89B778
:1007E000846089BF91989098AC98AD9808958130B5
:1007F000910581F08130910538F08230910539F012
:100800008330910561F409C0919890980895919A68
:10081000909808959198909A0895919A909A089531
:100820008130910581F08130910538F08230910559
:1008300039F08330910561F409C0AC98AD98089502
:10084000AC9AAD980895AC98AD9A0895AC9AAD9ACB
:1008500008958EB581608EBD08958EB58EBD0895C4
:100860001F920F920FB60F9211248F939F93809136
:100870007A0090917B009BBD8ABD80917C00909115
:100880007D0099BD88BD9F918F910F900FBE0F90F5
:080890001F901895F894FFCFAA
:00000001FF
