:10000000C2C0D1C0D0C0CFC0CEC0CDC0CCC0CBC08C
:100010001CC3C9C0C8C0C7C0C6C0C5C0C4C0C3C057
:10002000C2C0C1C0C0C00B0007000600070001002D
:100030000B000B000B0002000B000B000B0002007A
:100040000B000B000B0003000B0000000B000B006B
:100050000B0000000B0002000B000B000B00020065
:100060000B000B000B00030005000500050000005D
:100070000B0005000B000B000B000B000B000B002E
:100080000B000B000B000B000B000B000B0004001F
:100090000B000B000B0004000B000B000B00040016
:1000A0000B000B000B0003000B0005000B00000011
:1000B0000B0000000B000B000B000B000B000B00F3
:1000C0000B000B000B000B000B0000000B000000EE
:1000D0000B0000000B000B000B000B000B000100DD
:1000E0000B000B000B00080007000B0007000000CE
:1000F0000B0000000B000B000B000B000B000B00B3
:100100000B000B000B0008000B0000000B000A00A6
:100110000B000A000B000A000B000B000B000A008A
:100120000B000B000B000B000900090009000B007D
:100130000B000B000B000B000B000B000B000B0067
:100140000B000B000B0008000B0000000B000A0066
:100150000B0000000B000B000B000B000B000B0052
:100160000B000B000B000B000B0000000600000052
:100170000B0000000B000B000B000B000B000B0032
:100180000B000B000B0011241FBECFE5D4E0DEBF37
:10019000CDBF10E0A0E6B0E001C01D92AA37B107C4
:1001A000E1F7E1D06CC22CCF80EA9FE0909377001A
:1001B0008093760088E893E19093790080937800AB
:1001C00081E090E00FD281E090E022D2089588E8AB
:1001D00093E1909377008093760080ED97E0909381
:1001E00079008093780081E090E0FCD181E090E09C
:1001F0000FD2089588E893E190937700809376007A
:100200008CED95E0909379008093780081E090E008
:10021000E9D182E090E0FCD1089588E893E19093E1
:10022000770080937600109279001092780081E038
:1002300090E0D8D181E090E0EBD1089588E893E197
:10024000909377008093760088EB9BE09093790001
:100250008093780081E090E0C5D181E090E0D8D132
:10026000089588E893E1909377008093760080EA80
:100270009FE0909379008093780081E090E0B2D184
:1002800081E090E0C5D1089580ED97E090937700EC
:100290008093760088E893E19093790080937800CA
:1002A00081E090E09FD181E090E0B2D108958CEDA3
:1002B00095E0909377008093760088E893E190939F
:1002C00079008093780082E090E08CD181E090E02A
:1002D0009FD10895109277001092760088E893E1FC
:1002E000909379008093780081E090E07BD181E069
:1002F00090E08ED1089588EB9BE0909377008093F7
:10030000760088E893E1909379008093780081E00B
:1003100090E068D181E090E07BD1089588E893E196
:100320009093770080937600909379008093780083
:1003300081E090E057D181E090E06AD10895A39ADE
:10034000A29AA19AA09A8D988E988F988A98B89818
:10035000C09A28D173D1789481E090E043D181E0B4
:1003600090E056D10895EBDF8EE891E09093610024
:10037000809360008BE791E090936300809362002C
:100380008AE691E0909365008093640087E591E0B0
:10039000909367008093660084E491E090936900F5
:1003A0008093680081E391E090936B0080936A00F2
:1003B0008EE191E090936D0080936C008DE091E070
:1003C00090936F0080936E008AEF90E0909371009D
:1003D0008093700087EE90E090937300809372009A
:1003E00084ED90E0909375008093740097DFA12CCA
:1003F000B12C0F2EFCED4F2EF5E05F2EF02D0F2EC1
:10040000FCEA6F2EFDE07F2EF02D0F2EF8E88F2EE8
:10041000F3E19F2EF02D2A2C3B2C6894CC24C1F8BC
:10042000D12C6894EE24E2F8F12C08E010E0B092B0
:100430007700A0927600B0927900A0927800B099EF
:10044000FECF2FE788E391E0215080409040E1F714
:1004500000C00000B09BFECFAFE0B7E21197F1F70C
:1004600000C0000084EF91E09093770080937600C5
:1004700090937900809378009FEFA3EFB1E09150C3
:10048000A040B040E1F700C00000509277004092D9
:10049000760050927900409278002FEF83EF91E040
:1004A000215080409040E1F700C00000709277003A
:1004B000609276007092790060927800AFEFB3EFAF
:1004C00021E0A150B0402040E1F700C00000909230
:1004D0007700809276009092790080927800A0E672
:1004E000B0E0ED91FC910995D5013DC0829B02C021
:1004F000A80102C0422D532D859B02C0970102C066
:10050000222D332D869B02C0C60102C0822D932D61
:1005100060B3FD01E295F295F07FFE27E07FFE27B4
:10052000772767FD70956627770F661F7727462B1D
:10053000572B242B352B822B932B8E0F9F1FFC01C7
:10054000EE0FFF1FEA5DFF4FC491D0E0CB30D10525
:1005500051F0FE01EE0FFF1FE05AFF4F0190F081B6
:10056000E02D0995DE01B099C1CFB0927700A0923D
:100570007600B0927900A0927800BFE728E381E08E
:10058000B15020408040E1F700C00000B09BFECF9A
:100590009FE7A8E3B1E09150A040B040E1F700C070
:1005A000000045CFB99ABA9AC198C298919890988C
:1005B000AC98AD98899A889AA49AA59A80EA8FBD3A
:1005C00080E18EBD88E893E197BD86BD1BBC1ABC57
:1005D00019BC18BC89B7846089BF91989098AC9871
:1005E000AD9808958130910569F030F08230910521
:1005F00031F0039761F409C0919890980895919A09
:10060000909808959198909A0895919A909A089543
:100610008130910569F030F08230910531F0039717
:1006200061F409C0AC98AD980895AC9AAD9808955E
:10063000AC98AD9A0895AC9AAD9A08958EB5816044
:100640008EBD08958EB58EBD08951F920F920FB680
:100650000F9211248F939F93809176009091770051
:100660009BBD8ABD809178009091790099BD88BD2D
:100670009F918F910F900FBE0F901F901895F89437
:02068000FFCFAA
:00000001FF
