:10000000C2C0D1C0D0C0CFC0CEC0CDC0CCC0CBC08C
:1000100086C3C9C0C8C0C7C0C6C0C5C0C4C0C3C0ED
:10002000C2C0C1C0C0C00B0007000600070001002D
:100030000B000B000B0002000B000B000B0002007A
:100040000B000B000B0003000B0000000B000B006B
:100050000B0000000B0002000B000B000B00020065
:100060000B000B000B00030005000500050000005D
:100070000B0005000B000B000B000B000B000B002E
:100080000B000B000B000B000B000B000B0004001F
:100090000B000B000B0004000B000B000B00040016
:1000A0000B000B000B0003000B0005000B00000011
:1000B0000B0000000B000B000B000B000B000B00F3
:1000C0000B000B000B000B000B0000000B000000EE
:1000D0000B0000000B000B000B000B000B000100DD
:1000E0000B000B000B00080007000B0007000000CE
:1000F0000B0000000B000B000B000B000B000B00B3
:100100000B000B000B0008000B0000000B000A00A6
:100110000B000A000B000A000B000B000B000A008A
:100120000B000B000B000B000900090009000B007D
:100130000B000B000B000B000B000B000B000B0067
:100140000B000B000B0008000B0000000B000A0066
:100150000B0000000B000B000B000B000B000B0052
:100160000B000B000B000B000B0000000600000052
:100170000B0000000B000B000B000B000B000B0032
:100180000B000B000B0011241FBECFE5D4E0DEBF37
:10019000CDBF10E0A0E6B0E001C01D92AA37B107C4
:1001A000E1F769D1D6C22CCF80EA9FE09093770027
:1001B00080937600909379008093780081E090E0BE
:1001C00075D281E090E08BD28FE19EE40197F1F748
:1001D00000C0000080E89CE0909377008093760058
:1001E00081E090E063D2089580EA9FE090937700E9
:1001F00080937600909379008093780081E090E07E
:1002000055D282E090E06BD28FE19EE40197F1F746
:1002100000C0000080E496E090937900809378001D
:1002200081E090E05CD2089580EA9FE090937700AF
:1002300080937600909379008093780081E090E03D
:1002400035D282E090E04BD28FE59AEE0197F1F73C
:1002500000C0000088E795E09093790080937800D3
:1002600082E090E03CD2089580EA9FE0909377008E
:1002700080937600909379008093780081E090E0FD
:1002800015D282E090E02BD28FE19EE40197F1F746
:1002900000C0000080E293E09093790080937800A2
:1002A00081E090E01CD2089580EA9FE0909377006F
:1002B00080937600909379008093780082E090E0BC
:1002C000F5D181E090E00BD28FE19EE40197F1F748
:1002D00000C0000080E699E090937700809376005C
:1002E00081E090E0E3D1089580EA9FE09093770069
:1002F0008093760080ED97E090937900809378006A
:1003000081E090E0D3D182E090E0E9D18FE19EE4FA
:100310000197F1F700C0000080E89CE0909379001D
:100320008093780081E090E0DAD1089580EA9FE040
:100330009093770080937600909379008093780073
:1003400081E090E0B3D181E090E0C9D18FE19EE4FB
:100350000197F1F700C0000080E496E090937700E9
:100360008093760081E090E0A1D1089580EA9FE03B
:100370009093770080937600909379008093780033
:1003800082E090E093D181E090E0A9D18FE59AEEF0
:100390000197F1F700C0000088E097E090937700A4
:1003A0008093760082E090E081D1089580EA9FE01A
:1003B00090937700809376009093790080937800F3
:1003C00082E090E073D181E090E089D18FE19EE4FA
:1003D0000197F1F700C0000080E293E0909377006E
:1003E0008093760081E090E061D1089580EA9FE0FB
:1003F00090937700809376009093790080937800B3
:1004000081E090E053D182E090E069D18FE19EE4F9
:100410000197F1F700C0000080E699E09093790021
:100420008093780081E090E05AD1089580EA9FE0BF
:100430009093770080937600909379008093780072
:1004400081E090E033D181E090E049D10895A39A12
:10045000A29AA19AA09A8D988E988F988A98B89807
:10046000C09A04D155D1789481E090E01FD181E009
:1004700090E035D108954F925F926F927F928F9264
:100480009F92AF92BF92CF92DF92EF92FF920F9323
:100490001F93CF93DF93DBDF86E192E090936100BF
:1004A0008093600086EF91E09093630080936200F8
:1004B00086ED91E0909365008093640086EB91E077
:1004C000909367008093660086E991E090936900BD
:1004D0008093680084E791E090936B0080936A00BA
:1004E00084E591E090936D0080936C0084E391E04B
:1004F00090936F0080936E0084E191E0909371007F
:100500008093700084EF90E090937300809372006A
:1005100084ED90E090937500809374008824992472
:100520000F2EF4EC4F2EF9E05F2EF02D0F2EF0E69B
:100530006F2EF0E07F2EF02D00E010E0EE24FF247F
:100540006894E1F8CC24DD246894C2F8AA24BB2482
:100550006894A3F890927700809276009092790048
:1005600080927800B099FECF8FE798E3A1E08150A8
:100570009040A040E1F700C00000B09BFECFAFE08C
:10058000B7E21197F1F700C0000050927700409257
:10059000760050927900409278008FE798E3A1E0CE
:1005A00081509040A040E1F700C00000D301ED91E0
:1005B000FC910995E40134C0829B02C0F50101C0A1
:1005C000F801859B02C0B60101C0B801869B02C03C
:1005D000A70101C0A80120B3332727FD30952227AA
:1005E000330F221F33272E2B3F2B262B372B242B69
:1005F000352B280F391FE901CC0FDD1FCA5DDF4FF6
:10060000FE012491C22FD0E0CB30D10581F0FE0154
:10061000EE0FFF1FE60DF71D0190F081E02D09950B
:10062000CE0182959295907F9827807F9827B099E8
:10063000C3CF90927700809276009092790080925A
:1006400078008FE798E3A1E081509040A040E1F767
:1006500000C00000B09BFECF8FE798E3A1E081507F
:100660009040A040E1F700C0000074CFB99ABA9A58
:10067000C198C29891989098AC98AD98899A889AA8
:10068000A49AA59A80EA8FBD80E18EBD88E893E1A7
:1006900097BD86BD1BBC1ABC19BC18BC89B7846049
:1006A00089BF91989098AC98AD9808958130910544
:1006B00081F08130910538F08230910539F0833036
:1006C000910561F409C0919890980895919A909835
:1006D00008959198909A0895919A909A08958130EA
:1006E000910581F08130910538F08230910539F023
:1006F0008330910561F409C0AC98AD980895AC9A27
:10070000AD980895AC98AD9A0895AC9AAD9A0895B5
:100710008EB581608EBD08958EB58EBD08951F92F1
:100720000F920FB60F9211248F939F9380917600B2
:10073000909177009BBD8ABD80917800909179005F
:1007400099BD88BD9F918F910F900FBE0F901F9004
:060750001895F894FFCF9C
:00000001FF
