:10000000C2C0D1C0D0C0CFC0CEC0CDC0CCC0CBC08C
:10001000ACC3C9C0C8C0C7C0C6C0C5C0C4C0C3C0C7
:10002000C2C0C1C0C0C00B0007000600070001002D
:100030000B000B000B0002000B000B000B0002007A
:100040000B000B000B0003000B0000000B000B006B
:100050000B0000000B0002000B000B000B00020065
:100060000B000B000B00030005000500050000005D
:100070000B0005000B000B000B000B000B000B002E
:100080000B000B000B000B000B000B000B0004001F
:100090000B000B000B0004000B000B000B00040016
:1000A0000B000B000B0003000B0005000B00000011
:1000B0000B0000000B000B000B000B000B000B00F3
:1000C0000B000B000B000B000B0000000B000000EE
:1000D0000B0000000B000B000B000B000B000100DD
:1000E0000B000B000B00080007000B0007000000CE
:1000F0000B0000000B000B000B000B000B000B00B3
:100100000B000B000B0008000B0000000B000A00A6
:100110000B000A000B000A000B000B000B000A008A
:100120000B000B000B000B000900090009000B007D
:100130000B000B000B000B000B000B000B000B0067
:100140000B000B000B0008000B0000000B000A0066
:100150000B0000000B000B000B000B000B000B0052
:100160000B000B000B000B000B0000000600000052
:100170000B0000000B000B000B000B000B000B0032
:100180000B000B000B0011241FBECFE5D4E0DEBF37
:10019000CDBF10E0A0E6B0E001C01D92AA37B107C4
:1001A000E1F7A5D1FCC22CCF84EC99E090937700C5
:1001B00080937600909379008093780081E090E0BE
:1001C000A1D281E090E0B4D28FE19EE40197F1F7F3
:1001D00000C0000088E295E090937700809376005D
:1001E00082E796E0909379008093780081E090E038
:1001F00089D2089584EC99E09093770080937600FB
:10020000909379008093780081E090E07BD282E047
:1002100090E08ED28FE19EE40197F1F700C00000DC
:1002200082E796E0909377008093760084E992E0ED
:10023000909379008093780081E090E079D20895DE
:1002400084EC99E0909377008093760080EA9FE0B9
:10025000909379008093780081E090E053D282E01F
:1002600090E066D28FE295E70197F1F700C00000B9
:1002700082E796E090937700809376008BE893E096
:10028000909379008093780082E090E051D20895B5
:1002900084EC99E0909377008093760090937900B6
:1002A0008093780081E090E02DD282E090E040D20F
:1002B0008FE19EE40197F1F700C0000082E796E02D
:1002C00090937700809376008FEE91E09093790081
:1002D0008093780081E090E02BD2089584EC99E03F
:1002E00090937700809376009093790080937800C4
:1002F00082E090E007D281E090E01AD287EB9BE0A9
:100300000197F1F700C0000088E295E09093770034
:100310008093760082E796E090937900809378004E
:1003200081E090E0EFD1089584EC99E0909377001C
:1003300080937600909379008093780081E090E03C
:10034000E1D182E090E0F4D18FE19EE40197F1F7F2
:1003500000C0000082E796E09093770080937600DB
:1003600088E295E0909379008093780081E090E0B6
:10037000DFD1089584EC99E0909377008093760024
:10038000909379008093780081E090E0BBD181E088
:1003900090E0CED18FE19EE40197F1F700C000001C
:1003A00084E992E0909377008093760082E796E06C
:1003B000909379008093780081E090E0A3D1089534
:1003C00084EC99E090937700809376009093790085
:1003D0008093780082E090E095D181E090E0A8D110
:1003E0008FE59AEE0197F1F700C000008BE893E0EB
:1003F000909377008093760082E796E0909379005F
:100400008093780082E090E07DD1089584EC99E0BB
:100410009093770080937600909379008093780092
:1004200082E090E06FD181E090E082D18FE19EE4A4
:100430000197F1F700C000008AE491E09093770003
:100440008093760082E796E090937900809378001D
:1004500081E090E057D1089584EC99E09093770083
:1004600080937600909379008093780081E090E00B
:1004700049D182E090E05CD187EB9BE00197F1F7F6
:1004800000C0000082E796E09093770080937600AA
:1004900088E295E0909379008093780081E090E085
:1004A00047D1089582E796E0909377008093760095
:1004B000909379008093780081E090E023D181E0EF
:1004C00090E036D10895A39AA29AA19AA09A8D9805
:1004D0008E988F988A98B898C09AF4D03FD1789423
:1004E00081E090E00FD181E090E022D10895EBDF30
:1004F00082E592E090936100809360008CE292E04C
:10050000909363008093620086E092E09093650090
:100510008093640080EE91E0909367008093660082
:100520008AEB91E0909369008093680084E991E000
:1005300090936B0080936A008EE691E090936D003B
:1005400080936C0088E491E090936F0080936E003C
:1005500080E291E090937100809370008AEF90E0C8
:10056000909373008093720084ED90E090937500F7
:1005700080937400A12CB12C0F2EF4EC8F2EF9E097
:100580009F2EF02D0F2EF0E64F2EF0E05F2EF02D77
:100590006A2C7B2C6894CC24C1F8D12C6894EE246E
:1005A000E2F8F12C08E010E0B0927700A09276001B
:1005B000B0927900A0927800B099FECF2FE788E33F
:1005C00091E0215080409040E1F700C00000B09BD6
:1005D000FECFAFE0B7E21197F1F700C000009092B4
:1005E0007700809276009092790080927800BFE741
:1005F00028E381E0B15020408040E1F700C00000D6
:10060000D201ED91FC910995D5013DC0829B02C0BC
:10061000A80102C0462D572D859B02C0970102C03C
:10062000262D372D869B02C0C60102C0862D972D30
:1006300060B3FD01E295F295F07FFE27E07FFE2793
:10064000772767FD70956627770F661F7727462BFC
:10065000572B242B352B822B932B8E0F9F1FFC01A6
:10066000EE0FFF1FEA5DFF4FC491D0E0CB30D10504
:1006700051F0FE01EE0FFF1FE05AFF4F0190F08195
:10068000E02D0995DE01B099C1CFB0927700A0921C
:100690007600B0927900A0927800BFE728E381E06D
:1006A000B15020408040E1F700C00000B09BFECF79
:1006B0009FE7A8E3B1E09150A040B040E1F700C04F
:1006C000000072CFB99ABA9AC198C298919890983E
:1006D000AC98AD98899A889AA49AA59A80EA8FBD19
:1006E00080E18EBD88E893E197BD86BD1BBC1ABC36
:1006F00019BC18BC89B7846089BF91989098AC9850
:10070000AD9808958130910569F030F082309105FF
:1007100031F0039761F409C0919890980895919AE7
:10072000909808959198909A0895919A909A089522
:100730008130910569F030F08230910531F00397F6
:1007400061F409C0AC98AD980895AC9AAD9808953D
:10075000AC98AD9A0895AC9AAD9A08958EB5816023
:100760008EBD08958EB58EBD08951F920F920FB65F
:100770000F9211248F939F93809176009091770030
:100780009BBD8ABD809178009091790099BD88BD0C
:100790009F918F910F900FBE0F901F901895F89416
:0207A000FFCF89
:00000001FF
