:10000000C2C0D1C0D0C0CFC0CEC0CDC0CCC0CBC08C
:1000100016C4C9C0C8C0C7C0C6C0C5C0C4C0C3C05C
:10002000C2C0C1C0C0C00B0007000600070001002D
:100030000B000B000B0002000B000B000B0002007A
:100040000B000B000B0003000B0000000B000B006B
:100050000B0000000B0002000B000B000B00020065
:100060000B000B000B00030005000500050000005D
:100070000B0005000B000B000B000B000B000B002E
:100080000B000B000B000B000B000B000B000B0018
:100090000B000B000B0004000B000B000B00040016
:1000A0000B000B000B0003000B0005000B00000011
:1000B0000B0000000B000B000B000B000B000B00F3
:1000C0000B000B000B000B000B0000000B000000EE
:1000D0000B0000000B000B000B000B000B000100DD
:1000E0000B000B000B00080007000B0007000000CE
:1000F0000B0000000B000B000B000B000B000B00B3
:100100000B000B000B0008000B0000000B000A00A6
:100110000B000A000B000A000B000B000B000A008A
:100120000B000B000B000B0009000B0009000B007B
:100130000B000B000B000B000B000B000B000B0067
:100140000B000B000B0008000B0000000B000A0066
:100150000B0000000B000B000B000B000B000B0052
:100160000B000B000B000B000B0000000600000052
:100170000B0000000B000B000B000B000B000B0032
:100180000B000B000B0011241FBECFE5D4E0DEBF37
:10019000CDBF10E0A0E6B0E001C01D92AE37B107C0
:1001A000E1F7AFD1A4C32CCF89EC94E090937B000E
:1001B00080937A0086ED96E090937D0080937C009A
:1001C00081E090E009D381E090E01CD38FE097E2DA
:1001D0000197F1F700C00000089586ED96E0909336
:1001E0007B0080937A008DE092E090937D00809375
:1001F0007C0081E090E0F0D281E090E003D30895AC
:10020000CF93DF93C6EDD6E0D0937B00C0937A0006
:10021000D0937D00C0937C0081E090E0DDD282E04D
:1002200090E0F0D28FE19EE40197F1F700C000006A
:10023000D0937B00C0937A0083E193E090937D009C
:1002400080937C0081E090E0C7D282E090E0DAD237
:10025000DF91CF910895CF93DF93C6EDD6E0D09391
:100260007B00C0937A0088E795E090937D008093AF
:100270007C0081E090E0B0D282E090E0C3D28FE1D8
:100280009EE40197F1F700C00000D0937B00C0937B
:100290007A008DE092E090937D0080937C0081E075
:1002A00090E09AD281E090E0ADD2DF91CF910895B5
:1002B000CF93DF938BE693E090937B0080937A005B
:1002C000C6EDD6E0D0937D00C0937C0082E090E044
:1002D00083D281E090E096D28FE097E20197F1F728
:1002E00000C0000089EC94E090937B0080937A003A
:1002F000D0937D00C0937C0081E090E06DD281E0DE
:1003000090E080D2DF91CF91089586ED96E09093B2
:100310007B0080937A0089EC94E090937D00809339
:100320007C0081E090E058D281E090E06BD28FE0D9
:1003300097E20197F1F700C0000008958DE092E088
:1003400090937B0080937A0086ED96E090937D00F9
:1003500080937C0081E090E03FD281E090E052D237
:100360000895CF93DF93C6EDD6E0D0937B00C09382
:100370007A00D0937D00C0937C0082E090E02CD284
:1003800081E090E03FD28FE19EE40197F1F700C059
:10039000000083E193E090937B0080937A00D093F8
:1003A0007D00C0937C0082E090E016D281E090E076
:1003B00029D2DF91CF910895CF93DF9388E795E01D
:1003C00090937B0080937A00C6EDD6E0D0937D00B9
:1003D000C0937C0082E090E0FFD181E090E012D2F7
:1003E0008FE19EE40197F1F700C000008DE092E0FC
:1003F00090937B0080937A00D0937D00C0937C0023
:1004000081E090E0E9D181E090E0FCD1DF91CF91F3
:100410000895CF93DF93C6EDD6E0D0937B00C093D1
:100420007A008BE693E090937D0080937C0081E0DE
:1004300090E0D2D182E090E0E5D18FE097E20197A1
:10044000F1F700C00000D0937B00C0937A0089ECE4
:1004500094E090937D0080937C0081E090E0BCD19B
:1004600081E090E0CFD1DF91CF910895CF92DF92DC
:10047000EF92FF92A0917800B091790020E032E1F4
:100480004AE750E0F6D10F2EC12CF1E7DF2EF2E063
:10049000EF2EF12CF02DA7019601F1D130937B00C6
:1004A00020937A00A0917800B091790020E032E1A9
:1004B0004AE750E0DED1A7019601E1D130937D00FB
:1004C00020937C0081E090E087D181E090E09AD198
:1004D000FF90EF90DF90CF900895A39AA29AA19AEF
:1004E000A09A8D988E988F988A98B898C09A54D16F
:1004F0009FD1789481E090E06FD181E090E082D14B
:100500000895EBDF86E392E09093630080936200AE
:1005100089E092E090936500809364008CED91E017
:10052000909367008093660081EB91E0909369005F
:10053000809368008EE991E090936B0080936A004D
:1005400085E891E090936D0080936C0088E591E0E0
:1005500090936F0080936E008BE291E09093710016
:100560008093700080E091E090937300809372001C
:100570008DEE90E0909375008093740084ED90E090
:100580009093770080937600E12CF12C68942224DC
:1005900023F8312C6894442442F8512CCE2CDF2CC3
:1005A0006894662461F8712C842C952CA22CB32CB1
:1005B00010927B0010927A0010927D0010927C00C5
:1005C0001092610010926000B099FECF2FE788E38F
:1005D00091E0215080409040E1F700C00000B09BC6
:1005E000FECFAFE0B7E21197F1F700C0000084EC56
:1005F00099E090937B0080937A0090937D008093A4
:100600007C00BFE728E381E0B15020408040E1F763
:1006100000C00000A2E6B0E0ED91FC91099500E079
:1006200010E09BC0829B02C0A10101C0A701859B75
:1006300002C0920101C09701869B03C082E090E056
:1006400001C0C70160B3772767FD70956627770FF4
:10065000661F7727642B752B622B732B682B792BE6
:1006600002C0692F782F829B03C04A2D5B2D02C0E8
:100670004C2D5D2D859B03C0282D392D02C02C2DBE
:100680003D2D869B03C0862D972D02C08C2D9D2D60
:10069000C0B3DD27C7FDD095CC27DD0FCC1FDD27EC
:1006A000C42BD52BC22BD32BC82BD92B9C2F8D2FF2
:1006B000C617D707B1F60115110571F580916000D5
:1006C0009091610001969093610080936000809109
:1006D000600090916100929582958F7089279F703C
:1006E000892790937900809378000D9734F08CE0FF
:1006F00090E09093790080937800809178009091B9
:1007000079000A969093790080937800A2E6B0E091
:10071000ED91FC91099504C0F0926100E0926000B7
:10072000F801E295F295F07FFE27E07FFE27CE0FDD
:10073000DF1FFE01EE0FFF1FEA5DFF4FC491D0E007
:10074000CB30D10551F0FE01EE0FFF1FEE59FF4FE8
:100750000190F081E02D09958E01B09963CF109240
:100760007B0010927A0010927D0010927C00BFE70F
:1007700028E381E0B15020408040E1F700C0000054
:10078000B09BFECF9FE7A8E3B1E09150A040B040FE
:10079000E1F700C000000CCFB99ABA9AC198C2988C
:1007A00091989098AC98AD98899A889AA49AA59AAD
:1007B00080EA8FBD80E18EBD88E893E197BD86BD5C
:1007C0001BBC1ABC19BC18BC89B7846089BF91983E
:1007D0009098AC98AD9808958130910569F030F00B
:1007E0008230910531F0039761F409C09198909897
:1007F0000895919A909808959198909A0895919A51
:10080000909A08958130910569F030F08230910519
:1008100031F0039761F409C0AC98AD980895AC9A93
:10082000AD980895AC98AD9A0895AC9AAD9A089594
:100830008EB581608EBD08958EB58EBD08951F92D0
:100840000F920FB60F9211248F939F9380917A008D
:1008500090917B009BBD8ABD80917C0090917D0032
:1008600099BD88BD9F918F910F900FBE0F901F90E3
:100870001895B7FF26C025D0821B930B0895A1E2DF
:100880001A2EAA1BBB1BFD010DC0AA1FBB1FEE1F0A
:10089000FF1FA217B307E407F50720F0A21BB30B55
:1008A000E40BF50B661F771F881F991F1A9469F7D1
:1008B00060957095809590959B01AC01BD01CF012D
:1008C000089509D0A59F900DB49F900DA49F800D11
:1008D000911D11240895A29FB001B39FC001A39F51
:1008E00001D0B29F700D811D1124911D0895F894BF
:0208F000FFCF38
:00000001FF
