:1000000063C072C071C070C06FC06EC06DC06CC084
:1000100047C16AC069C068C067C066C065C064C0C7
:1000200063C062C061C00100080003000100040059
:1000300002000100010008000100020007000200A8
:10004000060001000200080003000300060006008D
:100050000300040006000300000004000400080080
:10006000050005000600010005000400060005006B
:10007000000004000600060001000600080003005E
:100080000700060001000700010008000800060044
:100090000B00080002000B00080000000900090026
:1000A00001000A000A00060001000A0002000B001D
:1000B0000A00000009000B00060001000B0001000F
:1000C00008000C0010000C0011241FBECFE5D4E086
:1000D000DEBFCDBF10E0A0E6B0E001C01D92A436A7
:1000E000B107E1F716D0F6C08BCFA39AA29AA19AD6
:1000F000A09A8D988E988F988A98B898C09A77D041
:10010000C8D0789481E090E092D081E090E0A8D0CF
:100110000895CF93DF93E6E2F0E0E491EC3079F0DC
:1001200080E090E00196FC01EE0FFF1FE80FF91F41
:10013000EE0FFF1FEA5DFF4FE491EC3099F7D5DF3A
:10014000C8E8D3E110926100109260001092630041
:1001500010926200B099FECF8FE798E3A1E0815042
:100160009040A040E1F700C0000081E090E05FD047
:1001700081E090E075D0B09BFECFAFE0B7E2119781
:10018000F1F700C00000D0936100C0936000D093ED
:100190006300C0936200B09B0DC028E833E180EAA1
:1001A0009FE0309361002093600090936300809300
:1001B0006200F7CF1092610010926000109263000D
:1001C000109262008FE798E3A1E081509040A04038
:1001D000E1F700C00000B09BFECF8FE798E3A1E0FD
:1001E00081509040A040E1F700C00000ABCFB99A29
:1001F000BA9AC198C29891989098AC98AD98899AFB
:10020000889AA49AA59A80EA8FBD80E18EBD88E87D
:1002100093E197BD86BD1BBC1ABC19BC18BC89B73D
:10022000846089BF91989098AC98AD98089581307A
:10023000910581F08130910538F08230910539F0D7
:100240008330910561F409C0919890980895919A2E
:10025000909808959198909A0895919A909A0895F7
:100260008130910581F08130910538F0823091051F
:1002700039F08330910561F409C0AC98AD980895C8
:10028000AC9AAD980895AC98AD9A0895AC9AAD9A91
:1002900008958EB581608EBD08958EB58EBD08958A
:1002A0001F920F920FB60F9211248F939F938091FC
:1002B0006000909161009BBD8ABD80916200909129
:1002C000630099BD88BD9F918F910F900FBE0F90D5
:0802D0001F901895F894FFCF70
:00000001FF
