:10000000C2C0D1C0D0C0CFC0CEC0CDC0CCC0CBC08C
:1000100014C3C9C0C8C0C7C0C6C0C5C0C4C0C3C05F
:10002000C2C0C1C0C0C00B0007000600070001002D
:100030000B000B000B0002000B000B000B0002007A
:100040000B000B000B0003000B0000000B000B006B
:100050000B0000000B0002000B000B000B00020065
:100060000B000B000B00030005000500050000005D
:100070000B0005000B000B000B000B000B000B002E
:100080000B000B000B000B000B000B000B0004001F
:100090000B000B000B0004000B000B000B00040016
:1000A0000B000B000B000B000B0005000B00000009
:1000B0000B0000000B000B000B000B000B000B00F3
:1000C0000B000B000B000B000B0000000B000000EE
:1000D0000B0000000B000B000B000B000B000100DD
:1000E0000B000B000B00080007000B0007000000CE
:1000F0000B0000000B000B000B000B000B000B00B3
:100100000B000B000B0008000B0000000B000A00A6
:100110000B000A000B000A000B000B000B000A008A
:100120000B000B000B000B000900090009000B007D
:100130000B000B000B000B000B000B000B000B0067
:100140000B000B000B000B000B0000000B000A0063
:100150000B0000000B000B000B000B000B000B0052
:100160000B000B000B000B000B0000000600000052
:100170000B0000000B000B000B000B000B000B0032
:100180000B000B000B0011241FBECFE5D4E0DEBF37
:10019000CDBF10E0A0E6B0E001C01D92AA37B107C4
:1001A000E1F7D9D064C22CCF88E893E1909377002F
:1001B00080937600909379008093780081E090E0BE
:1001C00009D281E090E01CD2089588E893E19093F1
:1001D000770080937600909379008093780081E097
:1001E00090E0F8D181E090E00BD2089588E893E1A7
:1001F00090937700809376008CED95E09093790052
:100200008093780081E090E0E5D182E090E0F8D141
:10021000089588E893E19093770080937600109298
:1002200079001092780081E090E0D4D181E090E0F4
:10023000E7D1089588E893E1909377008093760062
:1002400088EB9BE0909379008093780081E090E0C8
:10025000C1D181E090E0D4D1089588E893E19093F2
:10026000770080937600909379008093780081E006
:1002700090E0B0D181E090E0C3D1089588E893E1A7
:100280009093770080937600909379008093780024
:1002900081E090E09FD181E090E0B2D108958CEDB3
:1002A00095E0909377008093760088E893E19093AF
:1002B00079008093780082E090E08CD181E090E03A
:1002C0009FD10895109277001092760088E893E10C
:1002D000909379008093780081E090E07BD181E079
:1002E00090E08ED1089588EB9BE090937700809307
:1002F000760088E893E1909379008093780081E01C
:1003000090E068D181E090E07BD1089588E893E1A6
:100310009093770080937600909379008093780093
:1003200081E090E057D181E090E06AD10895A39AEE
:10033000A29AA19AA09A8D988E988F988A98B89828
:10034000C09A28D173D1789481E090E043D181E0C4
:1003500090E056D10895EBDF86E891E0909361003C
:100360008093600083E791E0909363008093620044
:1003700082E691E090936500809364008FE491E0C1
:1003800090936700809366008EE391E090936900FC
:10039000809368008DE291E090936B0080936A00F7
:1003A0008AE191E090936D0080936C0089E091E088
:1003B00090936F0080936E0086EF90E090937100B1
:1003C0008093700085EE90E09093730080937200AC
:1003D00084ED90E0909375008093740097DFA12CDA
:1003E000B12C0F2EFCED4F2EF5E05F2EF02D0F2ED1
:1003F000FCEA6F2EFDE07F2EF02D0F2EF8E88F2EF9
:10040000F3E19F2EF02D2A2C3B2C6894CC24C1F8CC
:10041000D12C6894EE24E2F8F12C08E010E0B092C0
:100420007700A0927600B0927900A0927800B099FF
:10043000FECF2FE788E391E0215080409040E1F724
:1004400000C00000A0E6B0E0ED91FC910995B09BE2
:10045000FECF8FE097E20197F1F700C00000A4EF14
:10046000B1E0B0937700A0937600B0937900A093A9
:100470007800BFEF23EF81E0B15020408040E1F7EA
:1004800000C00000509277004092760050927900B0
:10049000409278009FEFA3EFB1E09150A040B040B0
:1004A000E1F700C0000070927700609276007092D1
:1004B0007900609278002FEF83EF91E02150804027
:1004C0009040E1F700C000009092770080927600A3
:1004D0009092790080927800D5013DC0829B02C045
:1004E000A80102C0422D532D859B02C0970102C076
:1004F000222D332D869B02C0C60102C0822D932D72
:1005000060B3FD01E295F295F07FFE27E07FFE27C4
:10051000772767FD70956627770F661F7727462B2D
:10052000572B242B352B822B932B8E0F9F1FFC01D7
:10053000EE0FFF1FEA5DFF4FC491D0E0CB30D10535
:1005400051F0FE01EE0FFF1FE05AFF4F0190F081C6
:10055000E02D0995DE01B099C1CFB0927700A0924D
:100560007600B0927900A0927800AFE7B8E321E07E
:10057000A150B0402040E1F700C00000B09BFECF8A
:100580008FE798E3A1E081509040A040E1F700C0E0
:10059000000045CFB99ABA9AC198C298919890989C
:1005A000AC98AD98899A889AA49AA59A80EA8FBD4A
:1005B00080E18EBD88E893E197BD86BD1BBC1ABC67
:1005C00019BC18BC89B7846089BF91989098AC9881
:1005D000AD9808958130910569F030F08230910531
:1005E00031F0039761F409C0919890980895919A19
:1005F000909808959198909A0895919A909A089554
:100600008130910569F030F08230910531F0039727
:1006100061F409C0AC98AD980895AC9AAD9808956E
:10062000AC98AD9A0895AC9AAD9A08958EB5816054
:100630008EBD08958EB58EBD08951F920F920FB690
:100640000F9211248F939F93809176009091770061
:100650009BBD8ABD809178009091790099BD88BD3D
:100660009F918F910F900FBE0F901F901895F89447
:02067000FFCFBA
:00000001FF
