:1000000012C021C020C01FC01EC01DC01CC01BC00C
:1000100094C119C018C017C016C015C014C013C0B1
:1000200012C011C010C011241FBECFE5D4E0DEBF46
:10003000CDBF10E0A0E6B0E001C01D92A436B1072C
:10004000E1F716D0D2C1DCCFA39AA29AA19AA09AC6
:100050008D988E988F988D98B898C09A1BD166D13C
:10006000789481E090E036D181E090E049D1089524
:10007000EBDF212C312C0F2EC12CF1E7DF2EF2E02B
:10008000EF2EF12CF02D0F2EFAE04F2E512CF02DEB
:10009000622C732C309261002092600030926300D9
:1000A00020926200B099FECF2FE788E391E02150C3
:1000B00080409040E1F700C00000B09BFECF8FE091
:1000C00097E20197F1F700C000008AEF90E090936B
:1000D00061008093600090936300809362009FE7CB
:1000E00028E381E0915020408040E1F700C000000B
:1000F00084EF91E09093610080936000909363009F
:10010000809362009FE728E381E091502040804087
:10011000E1F700C00000B09B9AC04101510181018C
:10012000E101829B04C0A114B10439F0ADC0869BEB
:1001300013C0A114B10439F40FC0AA24A394B12CA4
:10014000C62DD72D09C0A62CB72CC62DD72D04C07F
:10015000A62CB72CC62DD72D879B04C081149104E3
:1001600039F095C0859B13C08114910439F40FC0F8
:1001700088248394912C062D172D09C0862C972C4A
:10018000062D172D04C0862C972C062D172DA11493
:10019000B10459F0CF3FD10540F4219681E090E0C1
:1001A00099D082E090E0ACD00EC08114910459F057
:1001B0000F3F110540F40F5F1F4F82E090E08AD09F
:1001C00081E090E09DD0879902C0D20102C0A62DA7
:1001D000B72D86991F9685995E968299DC96B6957D
:1001E000A795CE019695879596958795A80FB91FE7
:1001F00020E032E14AE750E0BAD0A7019601BDD035
:100200003093630020936200879902C0D20102C03C
:10021000A6E4B0E086995E9685991F9682991A9712
:10022000B695A795C8019695879596958795A80F39
:10023000B91F20E032E14AE750E099D0A7019601CA
:100240009CD03093610020936000B0996ACF3092C7
:1002500061002092600030926300209262009FE76C
:1002600028E381E0915020408040E1F700C0000089
:10027000B09BFECF9FE728E381E091502040804073
:10028000E1F700C0000006CF869962CF65CF85995F
:100290007ACF7DCFB99ABA9AC198C298919890981E
:1002A000AC98AD98899A889AA49AA59A80EA8FBD4D
:1002B00080E18EBD88E893E197BD86BD1BBC1ABC6A
:1002C00019BC18BC89B7846089BF91989098AC9884
:1002D000AD9808958130910569F030F08230910534
:1002E00031F0039761F409C0919890980895919A1C
:1002F000909808959198909A0895919A909A089557
:100300008130910569F030F08230910531F003972A
:1003100061F409C0AC98AD980895AC9AAD98089571
:10032000AC98AD9A0895AC9AAD9A08958EB5816057
:100330008EBD08958EB58EBD08951F920F920FB693
:100340000F9211248F939F93809160009091610090
:100350009BBD8ABD809162009091630099BD88BD6C
:100360009F918F910F900FBE0F901F901895B7FF20
:1003700026C025D0821B930B0895A1E21A2EAA1B3A
:10038000BB1BFD010DC0AA1FBB1FEE1FFF1FA21745
:10039000B307E407F50720F0A21BB30BE40BF50B42
:1003A000661F771F881F991F1A9469F760957095CB
:1003B000809590959B01AC01BD01CF01089509D0B6
:1003C000A59F900DB49F900DA49F800D911D1124A9
:1003D0000895A29FB001B39FC001A39F01D0B29F17
:0E03E000700D811D1124911D0895F894FFCF1A
:00000001FF
